:020000040800F2
:10000000E8160020A10300081104000811040008EC
:100010001104000811040008110400080000000089
:10002000000000000000000000000000E91A0008C5
:100030001104000800000000A51C0008FD1C0008B9
:10004000110400081104000811040008110400083C
:10005000110400081104000811040008110400082C
:10006000110400081104000811040008110400081C
:10007000110400081104000811040008110400080C
:1000800011040008110400081104000811040008FC
:1000900011040008110400081104000811040008EC
:1000A00011040008110400081104000811040008DC
:1000B00011040008110400081104000811040008CC
:1000C00011040008110400081104000811040008BC
:1000D00011040008110400081104000811040008AC
:1000E000110400081104000811040008110400089C
:1000F000110400081104000811040008110400088C
:10010000110400081104000811040008110400087B
:10011000110400081104000811040008110400086B
:10012000110400081104000811040008110400085B
:10013000110400081104000811040008110400084B
:10014000110400081104000811040008110400083B
:10015000110400081104000811040008110400082B
:10016000110400081104000811040008110400081B
:10017000110400081104000811040008110400080B
:10018000110400081104000880B58AB000AF78603F
:10019000396000237B6200233B620023FB61002364
:1001A000BB617B681B8A9BB27B627B6A23F44053F2
:1001B0007B623B68DB887A6A13437B627B6A9AB214
:1001C0007B681A827B689B899BB27B627B6A23F483
:1001D000B05323F00C037B623B689A883B681B8911
:1001E00013439AB23B685B8913439BB27A6A134309
:1001F0007B627B6A9AB27B689A817B689B8A9BB29E
:100200007B627B6A23F440737B623B689B897A6ADA
:1002100013437B627B6A9AB27B689A8207F1080378
:10022000184600F0A3FC7A68314B9A4203D07A68F2
:10023000304B9A4202D17B693B6201E03B693B62F1
:100240007B689B899BB29BB21BB2002B0CDA3A6A8B
:1002500013469B0013449A001A443B681B685B00DA
:10026000B2FBF3F3FB610BE03A6A13469B001344C5
:100270009A001A443B681B689B00B2FBF3F3FB61D6
:10028000FA691D4BA3FB02135B091B017B627B6AAE
:100290001B09642202FB03F3FA69D31ABB617B6872
:1002A0009B899BB29BB21BB2002B0DDABB69DB00B2
:1002B00003F13202104BA3FB02135B0903F00703A7
:1002C0007A6A13437B620CE0BB691B0103F13202C3
:1002D000094BA3FB02135B0903F00F037A6A134374
:1002E0007B627B6A9AB27B681A812837BD4680BDE3
:1002F00000100140001401401F85EB5180B483B011
:1003000000AF78600B46FB70FB78002B08D07B6851
:100310009B899BB243F400539AB27B689A8107E0B1
:100320007B689B899BB223F400539AB27B689A81C5
:100330000C37BD465DF8047B704700BF80B483B0C6
:1003400000AF78600B46FB70FB78002B0AD07B680F
:100350009B899BB26FEA43436FEA53439AB27B682F
:100360009A8107E07B689B899BB2C3F30E039AB224
:100370007B689A810C37BD465DF8047B704700BFEF
:1003800080B483B000AF78607B689B889BB2C3F376
:1003900008039BB218460C37BD465DF8047B7047D6
:1003A00080B582B000AF144B7B60144B3B6007E01C
:1003B0003B681A1D3A607A68111D796012681A60EC
:1003C0003A680F4B9A42F3D30E480F494FF00002A0
:1003D0008842B8BF40F8042BFFF6FAAFDFF82C00D4
:1003E000016841F47001016001F08EFA00F03AFBFF
:1003F0000837BD4680BD00BF2C2200080000002049
:100400001C0000201C000020E40E002088ED00E00D
:1004100080B400AFFEE700BF80B483B000AF0346F6
:10042000FB71134BFA7992B29A8100BF104B1B8972
:100430009BB203F00203002BF8D000BF0C4B1B89CA
:100440009BB203F00103002BF8D000BF084B1B89BF
:100450009BB203F08003002BF8D1054B9B899BB224
:10046000DBB218460C37BD465DF8047B704700BF11
:100470000038004080B584B000AF786008200121CA
:1004800000F01EFC4FF47043BB6001233B7300235C
:10049000BB7303237B730023FB7307F108030B4833
:1004A000194601F08FF809484FF4805101F018F90E
:1004B0004FF47A7000F064FD04484FF4805101F06D
:1004C0001DF94FF47A7000F05BFDECE7000C024080
:1004D00080B582B000AF0346FB710D484FF4007148
:1004E00001F00CF9FB791846FFF796FF0346FB7104
:1004F000FF20FFF791FF0346FB7105484FF40071A1
:1005000001F0EEF8FB7918460837BD4680BD00BF04
:10051000000C024080B582B000AF02460B46FA7173
:10052000BB710E484FF4007101F0E8F8FB7943F01D
:100530002003DBB21846FFF76FFF0346FB71BB7960
:100540001846FFF769FF0346FB7104484FF400713A
:1005500001F0C6F80837BD4680BD00BF000C024060
:1005600080B58CB000AF78600820012100F0A8FBB6
:100570004FF4C0637B62012387F82830002387F89B
:100580002A30032387F82930002387F82B3007F11E
:1005900024038048194601F015F87E484FF4007195
:1005A00001F0ACF87B484FF4806101F0A7F8FF231D
:1005B00087F82F304FF48040012100F09FFB02208C
:1005C000012100F07DFB74480C21052201F0A4F804
:1005D00071480D21052201F09FF86F480E21052278
:1005E00001F09AF86C480F21052201F095F84FF4BC
:1005F0006043FB61022387F82030022387F8213013
:10060000002387F82230002387F8233007F11C03EA
:100610006148194600F0D6FF4FF48053FB61022376
:1006200087F82030022387F82130002387F8223012
:10063000002387F8233007F11C035748194600F0C0
:10064000C1FF564801F08AFB1823BB8200233B817F
:100650004FF482737B810023BB814FF440737B8214
:100660000023FB820023FB8100233B8207F1080368
:100670004A48194601F0ACFB4848012101F0ECFB67
:10068000642000F07DFC00200B21FFF743FF0420D5
:100690000021FFF73FFF11200121FFF73BFF002062
:1006A0000B21FFF737FF3B484FF4806101F018F84A
:1006B0000020FFF70DFF034687F82E301120FFF7CB
:1006C00007FF034687F82E300920FFF701FF034696
:1006D00087F82E300120FFF7FBFE034687F82E3007
:1006E0000220FFF7F5FE034687F82E300320FFF7C0
:1006F000EFFE034687F82E300420FFF7E9FE03469D
:1007000087F82E300620FFF7E3FE034687F82E30E9
:100710000720FFF7DDFE034687F82E3097F82E30CE
:1007200003F04003002B26D06120FFF7D1FE0346E3
:1007300087F82F3097F82F30AB2B05D115484FF4A1
:10074000804100F0CDFF08E097F82F30CC2B04D18A
:1007500010484FF4804100F0D1FF97F82E30072069
:100760001946FFF7D7FE07202021FFF7D3FE002010
:100770000B21FFF7CFFE0720FFF7AAFE034687F8FD
:100780002E300820FFF7A4FE034687F82E3001F034
:1007900033FA88E7000C02400004024000380040B1
:1007A00080B586B000AF0820012100F089FA4FF42F
:1007B0000030012100F0A2FA20480521072200F0B4
:1007C000ABFF1E480621072200F0A6FF1C480121AE
:1007D000FFF7B4FD0023BB750123FB7502233B75B6
:1007E00020233B6102237B7507F110031348194650
:1007F00000F0E8FE02233B7540233B6107F1100344
:100800000E48194600F0DEFE4FF416533B600023FD
:10081000BB800023FB8000233B810023BB810C2392
:100820007B813B4606481946FFF7AEFC0448012190
:10083000FFF764FD1837BD4680BD00BF000C0240C5
:100840000044004080B584B000AF3B600346FB71BC
:100850000B46BB7113467B71FF23BB73C022BB7B6E
:100860005340DBB21E4AD35CBB73BA7BFB79534067
:10087000DBB21B4AD35CBB73BA7BBB795340DBB2A0
:10088000174AD35CBB73BA7B7B795340DBB2144A03
:10089000D35CBB7300237B730023FB730CE0FB7BF7
:1008A0003A6813441A78BB7B5340DBB20C4AD35CE2
:1008B000BB73FB7B0133FB73FA7B7B799A42EED3EC
:1008C000BB79002BBB79022B06D13B681B781846FD
:1008D000FFF7FEFD03467B731037BD4680BD00BFAA
:1008E0000821000880B58AB002AF78600023FB754C
:1008F0000023BB7500237B7500233B750023FB742D
:10090000564B1B889BB203F02003002B00F0A38002
:100910005248FFF735FD0346FB61C0231A46FB69C9
:100920009A4218D1BB7D012B12D100233B750023C5
:10093000FB75FF23BB614A4800214FF4807201F030
:1009400097FB07F10C0318460021042201F090FBED
:100950000123BB757FE0BB7D012B7CD1DC231A46D4
:10096000FB699A4207D1DB231A46BB699A4202D13E
:10097000C023FB610BE0DD231A46FB699A4206D1D6
:10098000DB231A46BB699A4201D1DB23FB61FB6979
:10099000BB61FB7D042B5DD801A252F823F000BFA0
:1009A000B5090008550A0008C1090008D109000866
:1009B000E1090008FB69DBB27B730223FB754AE0A7
:1009C000FB69DBB2BB73FB697B750323FB7542E0FC
:1009D000FB69DBB2FB73FB69FB740423FB753AE034
:1009E000FB7B3A7D9A4208D23B7DFA69D1B21C4A20
:1009F000D1543B7D01333B752BE0FB7B3A7D9A4222
:100A000027D3FB69DBB27B74797B787C7A7DFB7CB6
:100A10000090084611461A46114BFFF713FF0023BA
:100A20003B750023FB750023BB7500237B750023FA
:100A3000FB74FF23BB610A4800214FF4807201F070
:100A400017FB07F10C0318460021042201F010FBEC
:100A500001E000E000BF01F0CFF851E700100140D5
:100A60001C00002080B584B004AF012000F044F8E1
:100A700000BF00F053F80346002BFAD0FFF790FEBA
:100A80000023009300230193002302930023039388
:100A9000134814497822002300F0C4F9002300937E
:100AA0000023019300230293002303930E480F4970
:100AB0007822002300F0B6F900230093002301936D
:100AC000002302930023039309480A497822002354
:100AD00000F0A8F900F096FA00231846BD4680BD44
:100AE0007504000808220008E50800081022000824
:100AF000610500081C22000880B483B000AF0346E3
:100B0000FB71054B00221A70034BFA791A700C37EF
:100B1000BD465DF8047B70470238024080B582B064
:100B200000AF00233B600023FB710023BB71312029
:100B300000F03EF90346BB713B6801333B603B6804
:100B4000B3F5A06F02D0BB79002BF0D0312000F0BC
:100B50002FF90346002B02D00123FB7101E0002393
:100B6000FB71FB7918460837BD4680BD80B489B05B
:100B700000AF78600023BB6100237B610023FB6131
:100B800002233B610023FB600223BB60484B9B6850
:100B900003F00C03BB61BB69042B07D0082B09D001
:100BA000002B3FD17B68434A1A603FE07B68424A92
:100BB0001A603BE03E4B5B6803F480039B0DFB60D7
:100BC0003B4B5B6803F03F03BB60FB68002B0DD021
:100BD000394ABB68B2FBF3F2354B596847F6C0732C
:100BE0000B409B0903FB02F3FB610CE0314ABB683D
:100BF000B2FBF3F22E4B596847F6C0730B409B09CA
:100C000003FB02F3FB612A4B5B6803F440331B0CCC
:100C100001335B003B61FA693B69B2FBF3F27B682D
:100C20001A6003E07B68234A1A6000BF204B9B6870
:100C300003F0F003BB61BB691B09BB611F4ABB69C1
:100C400013441B78DBB27B617B681A687B69DA40EE
:100C50007B685A60164B9B6803F4E053BB61BB6929
:100C60009B0ABB61154ABB6913441B78DBB27B61ED
:100C70007B685A687B69DA407B689A600C4B9B689A
:100C800003F46043BB61BB695B0BBB610B4ABB698F
:100C900013441B78DBB27B617B685A687B69DA405E
:100CA0007B68DA602437BD465DF8047B704700BF7F
:100CB000003802400024F40000127A0000000020F6
:100CC00080B483B000AF78600B46FB70FB78002BDC
:100CD00006D0094B084A116B7A680A431A6306E08A
:100CE000054B054A116B7A68D2430A401A630C37E8
:100CF000BD465DF8047B70470038024080B483B085
:100D000000AF78600B46FB70FB78002B06D0094BD8
:100D1000084A116C7A680A431A6406E0054B054AD2
:100D2000116C7A68D2430A401A640C37BD465DF8EC
:100D3000047B70470038024080B483B000AF786015
:100D40000B46FB70FB78002B06D0094B084A116A52
:100D50007A680A431A6206E0054B054A116A7A6806
:100D6000D2430A401A620C37BD465DF8047B7047D7
:100D70000038024080B483B000AF78600B46FB704F
:100D8000FB78002B06D0094B084A516A7A680A435F
:100D90005A6206E0054B054A516A7A68D2430A4016
:100DA0005A620C37BD465DF8047B7047003802403C
:100DB00080B487B000AF0346FB710023FB600023C3
:100DC0007B610023FB74FB795B09DBB2FB60FB6892
:100DD000012B03D1124B1B687B6109E0FB68022BDE
:100DE00003D10F4B1B6F7B6102E00D4B5B6F7B618F
:100DF000FB7903F01F03FB60FB687A6922FA03F3B7
:100E000003F00103002B02D00123FB7401E0002357
:100E1000FB74FB7C18461C37BD465DF8047B7047AD
:100E20000038024080B58AB002AFF860B9603B601C
:100E30001346FB80FB68002B02D100F025FFFEE784
:100E4000BB6A0F2B02D900F01FFFFEE7FB88184694
:100E5000396B00F06BFBB861BB69002B6DD0BB69CF
:100E60001A6BFB8803F18043013B9B0013447B61B9
:100E70007B6923F007037B617B6903F00703002B89
:100E800002D000F001FFFEE7FB880093B869B96863
:100E9000BA6A7B6B00F090FA7869F9683A6800F0FA
:100EA000E1FD0246BB691A60FB6A002B02D0FB6AB7
:100EB000BA691A6000F0B0FE2B4B1B685A1C2A4B13
:100EC0001A602A4B1B68002B09D1284BBA691A609B
:100ED000254B1B68012B0FD100F0B8FA0CE0244B16
:100EE0001B68002B08D1214B1B68DA6ABB6A9A4247
:100EF00002D81E4BBA691A601E4B1B685A1C1D4B48
:100F00001A60BB69DB6A01229A401B4B1B681A43BB
:100F1000194B1A60BB69DA6A13469B0013449B00A5
:100F2000164A1A44BB6904331046194600F066FCA1
:100F30000123FB6100F090FE02E04FF0FF33FB6104
:100F4000FB69012B0BD10A4B1B68002B07D0074B09
:100F50001B68DA6ABB6A9A4201D200F04DFEFB6957
:100F600018462037BD4680BDA40200201C01002089
:100F7000B0020020C0020020AC02002020010020AE
:100F800080B584B000AF78600023FB607B68002BE5
:100F900028D0184B1B68002B02D000F075FEFEE72E
:100FA00000F062F8144B1A687B681344BB60134B63
:100FB0001B680433184600F07DFC0346002B0BD160
:100FC0000E4B1B68DB6A012202FA03F3DA430C4B77
:100FD0001B681A400A4B1A60B86800F071FA00F0FA
:100FE00051F8F860FB68002B01D100F005FE1037C6
:100FF000BD4680BDC4020020A80200201C010020C4
:10100000AC02002080B586B004AF0023009300231B
:10101000019300230293002303930F480F49782282
:101020000023FFF7FFFE78607B68012B0AD100F0F8
:101030002BFE0B4B01221A600A4B00221A6000F0B3
:1010400073FD05E07B68002B02D100F01DFEFEE77A
:101050000837BD4680BD00BF991300082422000850
:10106000B0020020A802002080B400AF044B1B682F
:101070005A1C034B1A60BD465DF8047B704700BFE5
:10108000C402002080B582B000AF00237B60374BE4
:101090001B68002B02D100F0F7FDFEE700F0BCFD5D
:1010A000324B1B685A1E314B1A60304B1B68002BA9
:1010B00055D12F4B1B68002B51D02EE02D4BDB68F8
:1010C000DB683B603B681833184600F0F3FB3B6875
:1010D0000433184600F0EEFB3B68DB6A01229A40BD
:1010E000254B1B681A43244B1A603B68DA6A134687
:1010F0009B0013449B00214A1A443B68043310466A
:10110000194600F07BFB3B68DA6A1D4B1B68DB6A03
:101110009A4202D31B4B01221A60164B1B68002B0C
:10112000CCD1194B1B68002B11D00CE000F02EF82D
:101130000346002B02D0134B01221A60124B1B688E
:101140005A1E114B1A60104B1B68002BEED10D4B31
:101150001B68012B03D101237B6000F04DFD00F0E3
:101160007BFD7B6818460837BD4680BDC402002061
:10117000A402002090020020AC02002020010020E8
:101180001C010020B8020020B402002080B586B007
:1011900000AF00237B614D4B1B68002B40F0868025
:1011A0004B4B1B685A1C4A4B1A60494B1B683B61EE
:1011B0003B69002B18D1474B1B681B68002B02D0E2
:1011C00000F062FDFEE7434B1B68FB60424B1A6870
:1011D000404B1A60404BFA681A60404B1B685A1C1F
:1011E0003E4B1A6000F0CAF93D4B1B683A699A42BF
:1011F0004DD3384B1B681B68002B01D1012300E045
:101200000023002B04D0364B4FF0FF321A603EE033
:10121000304B1B68DB68DB68BB60BB685B687B606E
:101220003A697B689A4203D22D4B7A681A602EE0A5
:10123000BB680433184600F03DFBBB689B6A002B7B
:1012400004D0BB681833184600F034FBBB68DB6A77
:1012500001229A40234B1B681A43224B1A60BB6839
:10126000DA6A13469B0013449B001F4A1A44BB686A
:1012700004331046194600F0C1FABB68DA6A1B4B0A
:101280001B68DB6A9A4201D301237B61B1E7174BEC
:101290001B68DA6A144913469B0013449B000B44F5
:1012A0001B68012B07D901237B6104E0104B1B68ED
:1012B0005A1C0F4B1A600F4B1B68002B01D00123E7
:1012C0007B617B6918461837BD4680BDC40200208B
:1012D000A8020020880200208C020020BC0200200E
:1012E00010000020AC020020200100201C01002082
:1012F000B4020020B802002080B584B000AF214BBA
:101300001B68002B03D0204B01221A6037E01E4BD4
:1013100000221A601D4B1B687B607B68B3FA83F365
:10132000FB70FB78C3F11F03FB601949FA68134691
:101330009B0013449B000B441B68002B02D100F060
:10134000A3FCFEE7FA6813469B0013449B00104A77
:101350001344BB60BB685B685A68BB685A60BB6873
:101360005A68BB6808339A4204D1BB685B685A6804
:10137000BB685A60BB685B68DA68064B1A60103756
:10138000BD4680BDC4020020B8020020AC0200208F
:10139000200100201C01002080B582B000AF7860E1
:1013A00000F088F8034B1B68012B01D900F024FCE6
:1013B000F6E700BF2001002080B586B000AFF860DE
:1013C000B9607A603B6000237B6112E0BA687B6998
:1013D00013441A78F9687B690B4430331A71BA6880
:1013E0007B6913441B78002B00D105E07B69013336
:1013F0007B617B691F2BE9D9FB68002283F85320AE
:101400007B680F2B01D90F237B60FB687A68DA6257
:10141000FB687A685A65FB6800229A65FB680433AA
:10142000184600F0DFF9FB681833184600F0DAF9C7
:10143000FB68FA681A617B68C3F11002FB689A6165
:10144000FB68FA685A621837BD4680BD80B582B025
:1014500000AF00237B600CE07A6813469B001344C6
:101460009B000E4A1344184600F09CF97B68013338
:101470007B607B680F2BEFD9094800F093F909488E
:1014800000F090F9084800F08DF9084B044A1A6002
:10149000074B044A1A600837BD4680BD2001002072
:1014A00060020020740200209002002088020020C8
:1014B0008C02002080B400AFBD465DF8047B70470D
:1014C00080B582B000AF7860134B1B687A685A60B1
:1014D000124B1B687A689A4209D2114B1A680E4B5C
:1014E0001B6804331046194600F0ACF910E00D4BB0
:1014F0001A68094B1B6804331046194600F0A2F91C
:10150000094B1B687A689A4202D2074B7A681A60C4
:101510000837BD4680BD00BF1C010020A802002086
:101520008C020020880200201000002080B584B0CA
:1015300000AF03463960FB805C2000F0ADFCF86032
:10154000FB68002B15D03B68002B06D1FB889B0065
:10155000184600F0A1FC034600E03B68FA681363FC
:10156000FB681B6B002B04D1F86800F021FD002301
:10157000FB60FB6818461037BD4680BD80B483B061
:1015800000AF0E4B1B681B68002B01D1012300E04C
:101590000023002B04D00A4B4FF0FF321A6008E002
:1015A000064B1B68DB68DB687B607B685A68044B12
:1015B0001A600C37BD465DF8047B70478802002036
:1015C0001000002080B487B000AF7860396000233D
:1015D0007B6100233B610023FB6000237B6176E09D
:1015E0007B69012202FA03F33B613B681A683B699D
:1015F0001340FB60FA683B699A4265D17B681A68C0
:101600007B695B00032101FA03F3DB431A407B682B
:101610001A607B681A683B681B7919467B695B0016
:1016200001FA03F31A437B681A603B681B79012BAC
:1016300003D03B681B79022B2ED17B689A687B69AB
:101640005B00032101FA03F3DB431A407B689A60D5
:101650007B689A683B685B7919467B695B0001FA95
:1016600003F31A437B689A607B685A687B699BB274
:10167000012101FA03F3DB431A407B685A607B685F
:101680005A683B689B7919467B699BB201FA03F360
:101690009BB21A437B685A607B68DA687B699BB2AD
:1016A0005B00032101FA03F3DB431A407B68DA6035
:1016B0007B68DA683B68DB7919467B695B0001FA75
:1016C00003F31A437B68DA607B6901337B617B69D2
:1016D0000F2B85D91C37BD465DF8047B704700BFD2
:1016E00080B483B000AF78600B467B807B687A88DB
:1016F0001A830C37BD465DF8047B704780B483B015
:1017000000AF78600B467B807B687A885A830C3701
:10171000BD465DF8047B704780B485B000AF78604B
:1017200013460A467A807B700023FB600023BB606F
:101730007A787B8803F007039B0002FA03F3FB60CF
:101740007B88DB089BB21A467B88DB089BB2194674
:101750007B68083153F821107B8803F007039B0056
:101760000F2000FA03F3DB4319407B68083243F88B
:1017700022107B88DB089BB21A467B68083253F83C
:101780002220FB681343BB607B88DB089BB21A46B0
:101790007B680832B96843F822101437BD465DF8FB
:1017A000047B704780B483B000AF78607B6803F13E
:1017B00008027B685A607B684FF0FF329A607B6852
:1017C00003F108027B68DA607B6803F108027B683A
:1017D0001A617B6800221A600C37BD465DF8047BF5
:1017E000704700BF80B483B000AF78607B68002290
:1017F0001A610C37BD465DF8047B704780B485B034
:1018000000AF786039607B685B68FB603B68FA68B2
:101810005A60FB689A683B689A60FB689B683A6804
:101820005A60FB683A689A603B687A681A617B681C
:101830001B685A1C7B681A601437BD465DF8047B30
:10184000704700BF80B485B000AF786039603B68F6
:101850001B68BB60BB68B3F1FF3F03D17B681B69AA
:10186000FB600CE07B680833FB6002E0FB685B68B0
:10187000FB60FB685B681A68BB689A42F6D9FB6834
:101880005A683B685A603B685B683A689A603B6894
:10189000FA689A60FB683A685A603B687A681A612D
:1018A0007B681B685A1C7B681A601437BD465DF85C
:1018B000047B704780B485B000AF78607B681B699B
:1018C000FB607B685B687A6892689A607B689B685B
:1018D0007A6852685A60FB685A687B689A4203D1FA
:1018E0007B689A68FB685A607B6800221A61FB6813
:1018F0001B685A1EFB681A60FB681B681846143781
:10190000BD465DF8047B704780B500AF154B154AA6
:10191000D2F8882042F47002C3F88820124B124A91
:10192000126842F001021A600F4B00229A600E4AC0
:101930000D4B1B6823F0847323F4803313600A4B30
:101940000A4A5A60084B084A126822F480221A6038
:10195000054B0022DA6000F00BF8024B4FF00062FA
:101960009A6080BD00ED00E0003802401030002495
:1019700080B483B000AF00237B6000233B60354B15
:10198000344A126842F480321A60324B1B6803F406
:1019900000333B607B6801337B603B68002B03D1E5
:1019A0007B68B3F5A06FF0D12A4B1B6803F40033BA
:1019B000002B02D001233B6001E000233B603B6829
:1019C000012B42D1234B234A126C42F080521A64FD
:1019D000214B214A126842F480421A601D4B1D4A75
:1019E00092689A601B4B1B4A926842F400429A60CC
:1019F000184B184A926842F4A0529A60154B174A45
:101A00005A60144B134A126842F080721A6000BF89
:101A1000104B1B6803F00073002BF9D0104B40F201
:101A200005621A600B4B0B4A926822F003029A601F
:101A3000084B084A926842F002029A6000BF054BC8
:101A40009B6803F00C03082BF9D10C37BD465DF8F9
:101A5000047B704700380240007000400854400783
:101A6000003C024080B485B000AFF860B9607A6095
:101A7000FB68043BFB60FB684FF080721A60FB68F8
:101A8000043BFB60BA68FB681A60FB68043BFB60C0
:101A90000C4AFB681A60FB68143BFB607A68FB68C1
:101AA0001A60FB68043BFB60FB686FF002021A607F
:101AB000FB68203BFB60FB6818461437BD465DF8A9
:101AC000047B7047C91A000880B500AF054B1B683E
:101AD000B3F1FF3F02D000F0D7F8FEE700F0D4F8F2
:101AE000FEE700BF14000020064B19680868B0E844
:101AF000F04F80F30988BFF36F8F4FF0000080F341
:101B0000118870471C01002006480068006880F3B7
:101B1000088862B661B6BFF34F8FBFF36F8F00DFE7
:101B200000BF000008ED00E080B584B000AF2C4B92
:101B3000FB60FB681B78DBB2BB60FB68FF221A709E
:101B4000FB681B78DBB2FB71FB79DBB203F050035F
:101B5000DAB2244B1A70244B07221A6009E0224B98
:101B60001B685A1E204B1A60FB79DBB25B00DBB2AC
:101B7000FB71FB79DBB2DBB25BB2002BEFDB1A4B04
:101B80001B681A02184B1A60174B1B6803F4E062BB
:101B9000154B1A60BB68DAB2FB681A70134B134A14
:101BA000126842F470021A60104B104A126842F038
:101BB00070421A6000F0B6F80D4B00221A6000F077
:101BC000C3F80C4B0B4A126842F040421A60FFF710
:101BD0009BFFFFF779FF002318461037BD4680BDF5
:101BE00000E400E0C8020020CC02002020ED00E06C
:101BF0001400002034EF00E080B400AF054B4FF03C
:101C000080521A60BFF34F8FBFF36F8FBD465DF8F0
:101C1000047B704704ED00E080B500AF00F034F8BD
:101C20000B4B1B685A1C0A4B1A60BFF34F8FBFF354
:101C30006F8F074B1B68012B08D1064B1B6803F005
:101C40001F03002B02D000F01FF8FEE780BD00BF8D
:101C50001400002004ED00E080B500AF094B1B68C4
:101C6000002B02D100F010F8FEE7064B1B685A1E4D
:101C7000044B1A60034B1B68002B02D1002000F0BC
:101C80000DF880BD14000020EFF311804FF05001DB
:101C900081F3118870470023184600BF80F3118834
:101CA000704700BFEFF30980BFF36F8F124B1A68C4
:101CB0001EF0100F08BF20ED108A20E9F04F1060D1
:101CC0004DF8043D4FF0500080F31188FFF714FBEE
:101CD0004FF0000080F3118808BC19680868B0E86C
:101CE000F04F1EF0100F08BFB0EC108A80F3098887
:101CF000BFF36F8F704700BF1C01002080B500AF9D
:101D0000FFF7C2FFFFF742FA0346002B03D0044B54
:101D10004FF080521A600020FFF7C0FF80BD00BF67
:101D200004ED00E080B400AF044B054A1A60054B97
:101D300007221A60BD465DF8047B704714E000E09E
:101D40003F90020010E000E0DFF80C00016841F471
:101D5000700101607047000088ED00E080B582B03E
:101D600000AF78607A68174B9A420AD14FF48050DE
:101D70000121FEF7FFFF4FF480500021FEF7FAFF2C
:101D80001CE07A68104B9A420AD14FF4804001213E
:101D9000FEF7D2FF4FF480400021FEF7CDFF0DE0AB
:101DA0007A680A4B9A4209D14FF400400121FEF7AC
:101DB000C3FF4FF400400021FEF7BEFF0837BD46C9
:101DC00080BD00BF0030014000380040003C0040B2
:101DD00080B485B000AF786039600023FB817B68F8
:101DE0001B88FB81FB8903F44153FB813B681A8804
:101DF0003B685B8813439AB23B689B8813439AB253
:101E00003B68DB8813439AB23B681B8913439AB241
:101E10003B685B8913439AB23B689B8913439AB230
:101E20003B68DB8913439AB2FB891343FB817B68D0
:101E3000FA891A807B689B8B9BB223F400639AB269
:101E40007B689A833B681A8A7B681A821437BD467E
:101E50005DF8047B704700BF80B483B000AF78604A
:101E60000B46FB70FB78002B08D07B681B889BB26D
:101E700043F040039AB27B681A8007E07B681B88B6
:101E80009BB223F040039AB27B681A800C37BD46A0
:101E90005DF8047B704700BF80B588B000AF786004
:101EA00000237B61FFF7E0F83D4B1B68002B04D15A
:101EB00000F0B6F83A4B01221A607B68002B0DD077
:101EC00008237A6813447B607B6803F00703002BC8
:101ED00004D07B6823F0070308337B607B68002B0A
:101EE00057D07A6840F6F7339A4252D82D4BBB61EF
:101EF0002C4B1B68FB6104E0FB69BB61FB691B6841
:101F0000FB61FB695A687B689A4203D2FB691B68D4
:101F1000002BF1D1FA69244B9A423AD0BB691A6876
:101F2000082313447B61FB691A68BB691A60FB696B
:101F30005A687B68D21A08235B009A4222D9FA6950
:101F40007B681344FB60FB695A687B68D21AFB68A4
:101F50005A60FB697A685A60FB685B68BB60114B2A
:101F60003B6102E03B691B683B613B691B685A6847
:101F7000BB689A42F6D33B691A68FB681A603B69F2
:101F8000FA681A60094B1A68FB695B68D21A074B3A
:101F90001A60FFF777F87B6918462037BD4680BD89
:101FA000E00E0020D00E0020D80E002018000020E7
:101FB00080B586B000AF78607B683B617B68002BA2
:101FC00027D008235B423A6913443B613B69FB60BD
:101FD000FFF74AF8FB685B68BB600F4B7B6102E070
:101FE0007B691B687B617B691B685A68BB689A4286
:101FF000F6D37B691A68FB681A607B69FA681A6015
:10200000FB685A68054B1B681A44044B1A60FFF7BB
:1020100039F81837BD4680BDD00E002018000020CA
:1020200080B483B000AF0F4B23F007037B600E4BEF
:102030007A681A600C4B00225A600C4B40F6F8325A
:102040005A600A4B00221A607B683B603B6840F68E
:10205000F8325A603B68054A1A600C37BD465DF895
:10206000047B7047D8020020D00E0020D80E00203C
:10207000F0B4840743D0541E002A3ED0CDB20346AC
:1020800003E0621E002C38D0144603F8015B9A0767
:10209000F7D1032C2AD9CDB245EA05250F2C45EA04
:1020A000054515D9A4F110073F0903F1100606EB09
:1020B00007161A46156055609560D5601032B24219
:1020C000F8D104F00F040137032C03EB07130DD9EB
:1020D0001E462246043A032A46F8045BFAD8221F19
:1020E00022F003020432134404F003042CB1C9B2F9
:1020F0001C4403F8011BA342FBD1F0BC70471446FB
:102100000346C6E7C0DBDCDD00316253C4F5A697A9
:10211000B988DBEA7D4C1F2E4372211087B6E5D4C7
:10212000FACB98A93E0F5C6D86B7E4D542732011B7
:102130003F0E5D6CFBCA99A8C5F4A79601306352A7
:102140007C4D1E2FB889DAEB3D0C5F6EF9C89BAA57
:1021500084B5E6D7407122137E4F1C2DBA8BD8E987
:10216000C7F6A59403326150BB8AD9E87F4E1D2C77
:1021700002336051C6F7A495F8C99AAB3C0D5E6F67
:102180004170231285B4E7D67A4B1829BE8FDCED57
:10219000C3F2A1900736655439085B6AFDCC9FAE47
:1021A00080B1E2D344752617FCCD9EAF38095A6B37
:1021B0004574271681B0E3D2BF8EDDEC7B4A192827
:1021C00006376455C2F3A0914776251483B2E1D057
:1021D000FECF9CAD3A0B586904356657C0F1A29307
:1021E000BD8CDFEE79481B2AC1F0A39205346756F7
:1021F00078491A2BBC8DDEEF82B3E0D146772415E7
:102200003B0A5968FFCE9DAC764C45440000000067
:10221000765363616E557361727400007653504952
:0C2220000000000049444C450000000094
:10222C000000000001020304010203040607080970
:0C223C00FFFFFFFFAAAAAAAAF80B0000EF
:0400000508000000EF
:00000001FF
