:020000040800F2
:10000000D015002089010008F9010008F901000855
:10001000F9010008F9010008F901000800000000DA
:10002000000000000000000000000000F5130008C0
:10003000F901000800000000051500085D15000822
:10004000F9010008F9010008F9010008F9010008A8
:10005000F9010008F9010008F9010008F901000898
:10006000F9010008F9010008F9010008F901000888
:10007000F9010008F9010008F9010008F901000878
:10008000F9010008F9010008F9010008F901000868
:10009000F9010008F9010008F9010008F901000858
:1000A000F9010008F9010008F9010008F901000848
:1000B000F9010008F9010008F9010008F901000838
:1000C000F9010008F9010008F9010008F901000828
:1000D000F9010008F9010008F9010008F901000818
:1000E000F9010008F9010008F9010008F901000808
:1000F000F9010008F9010008F9010008F9010008F8
:10010000F9010008F9010008F9010008F9010008E7
:10011000F9010008F9010008F9010008F9010008D7
:10012000F9010008F9010008F9010008F9010008C7
:10013000F9010008F9010008F9010008F9010008B7
:10014000F9010008F9010008F9010008F9010008A7
:10015000F9010008F9010008F9010008F901000897
:10016000F9010008F9010008F9010008F901000887
:10017000F9010008F9010008F9010008F901000877
:10018000F9010008F901000880B582B000AF144BF6
:100190007B60144B3B6007E03B681A1D3A607A684D
:1001A000111D796012681A603A680F4B9A42F3D3B6
:1001B0000E480F494FF000028842B8BF40F8042BA8
:1001C000FFF6FAAFDFF82C00016841F4700101601E
:1001D00001F02AF800F0D0F90837BD4680BD00BF15
:1001E000E8180008000000200C0000200C0000208F
:1001F000CC0D002088ED00E080B400AFFEE700BF2A
:1002000080B483B000AF0346FB71134BFA7992B20E
:100210009A8100BF104B1B899BB203F00203002B95
:10022000F8D000BF0C4B1B899BB203F00103002BDD
:10023000F8D000BF084B1B899BB203F08003002B52
:10024000F8D1054B9B899BB2DBB218460C37BD46F3
:100250005DF8047B704700BF0038004080B584B073
:1002600000AF78600820012100F0F6F94FF47043E8
:10027000BB6001233B730023BB7303237B73002309
:10028000FB7307F108031948194600F02BFE1748C5
:100290004FF4805100F0B4FE4FF47A7000F028FB68
:1002A00012484FF4005100F0ABFE4FF47A7000F0AA
:1002B0001FFB0E484FF4804100F0A2FE4FF47A700D
:1002C00000F016FB09484FF4004100F099FE4FF48E
:1002D0007A7000F00DFB05484FF4704100F09EFE6F
:1002E0004FF47A7000F004FBD1E700BF000C02402D
:1002F00080B582B000AF0346FB710D484FF400712A
:1003000000F08CFEFB791846FFF77AFF0346FB717D
:10031000FF20FFF775FF0346FB7105484FF400719E
:1003200000F06EFEFB7918460837BD4680BD00BF61
:10033000000C024080B582B000AF02460B46FA7155
:10034000BB710F484FF4007100F068FEFB7943F079
:100350002003DBB21846FFF753FF0346FB71BB795E
:100360001846FFF74DFF0346FB7105484FF4007137
:1003700000F046FEFB7918460837BD4680BD00BF39
:10038000000C024080B582B000AF0346FB711048FC
:100390004FF4007100F042FEA020FFF731FFFB791F
:1003A0001846FFF72DFF0A484FF4806100F036FE33
:1003B000012000F09DFA06484FF4806100F020FE15
:1003C00003484FF4007100F01BFE0837BD4680BDA6
:1003D000000C024080B58CB000AF7860082001218D
:1003E00000F03AF94FF4C0637B62012387F82830AC
:1003F000002387F82A30032387F82930002387F861
:100400002B3007F124035948194600F06BFD57487B
:100410004FF4007100F002FE54484FF4806100F088
:10042000FDFDFF2387F82F304FF48040012100F0BD
:1004300031F90220012100F00FF94D480C2105226D
:1004400000F0FAFD4A480D21052200F0F5FD48486C
:100450000E21052200F0F0FD45480F21052200F095
:10046000EBFD4FF46043FB61022387F82030022349
:1004700087F82130002387F82230002387F82330C3
:1004800007F11C033A48194600F02CFD4FF4805345
:10049000FB61022387F82030022387F821300023F4
:1004A00087F82230002387F8233007F11C033048F7
:1004B000194600F017FD2F4801F080F81823BB8281
:1004C00000233B814FF482737B810023BB814FF477
:1004D00040737B820023FB820023FB8100233B824D
:1004E00007F108032348194601F0A2F82148012129
:1004F00001F0E2F800200A21FFF71CFF0420002190
:10050000FFF718FF0020FFF7F3FE034687F82F30B0
:100510000120FFF7EDFE034687F82F300220FFF79A
:10052000E7FE034687F82F300320FFF7E1FE03467E
:1005300087F82F300420FFF7DBFE034687F82F30C3
:100540000620FFF7D5FE034687F82F300720FFF778
:10055000CFFE034687F82F300820FFF7C9FE034679
:1005600087F82F30AA20FFF70DFFCBE7000C0240E1
:10057000000402400038004080B584B004AF012080
:1005800000F030F800BF00F03FF80346002BFAD02F
:10059000002300930023019300230293002303937D
:1005A0000C480D497822002300F008F9002300933D
:1005B0000023019300230293002303930748084973
:1005C0007822002300F0FAF800F0CCF90023184656
:1005D000BD4680BD5D020008D0180008D5030008A4
:1005E000D818000880B483B000AF0346FB71054BF8
:1005F00000221A70034BFA791A700C37BD465DF869
:10060000047B70470238024080B582B000AF0023FF
:100610003B600023FB710023BB71312000F094F894
:100620000346BB713B6801333B603B68B3F5A06F89
:1006300002D0BB79002BF0D0312000F085F80346C2
:10064000002B02D00123FB7101E00023FB71FB7939
:1006500018460837BD4680BD80B483B000AF7860CF
:100660000B46FB70FB78002B06D0094B084A116B38
:100670007A680A431A6306E0054B054A116B7A68EB
:10068000D2430A401A630C37BD465DF8047B7047BD
:100690000038024080B483B000AF78600B46FB7036
:1006A000FB78002B06D0094B084A116C7A680A4384
:1006B0001A6406E0054B054A116C7A68D2430A4079
:1006C0001A640C37BD465DF8047B70470038024061
:1006D00080B483B000AF78600B46FB70FB78002BD2
:1006E00006D0094B084A116A7A680A431A6206E082
:1006F000054B054A116A7A68D2430A401A620C37E0
:10070000BD465DF8047B70470038024080B483B07A
:1007100000AF78600B46FB70FB78002B06D0094BCE
:10072000084A516A7A680A435A6206E0054B054A4C
:10073000516A7A68D2430A405A620C37BD465DF866
:10074000047B70470038024080B487B000AF034696
:10075000FB710023FB6000237B610023FB74FB79AA
:100760005B09DBB2FB60FB68012B03D1124B1B68FA
:100770007B6109E0FB68022B03D10F4B1B6F7B6190
:1007800002E00D4B5B6F7B61FB7903F01F03FB60A5
:10079000FB687A6922FA03F303F00103002B02D00D
:1007A0000123FB7401E00023FB74FB7C18461C371B
:1007B000BD465DF8047B70470038024080B58AB0C2
:1007C00002AFF860B9603B601346FB80FB881846B7
:1007D000396B00F03BFBB861BB69002B65D0BB698E
:1007E0001A6BFB8803F18043013B9B0013447B6140
:1007F0007B6923F007037B61FB880093B869B968C4
:10080000BA6A7B6B00F068FA7869F9683A6800F0B8
:10081000B9FD0246BB691A60FB6A002B02D0FB6A75
:10082000BA691A6000F03EFE2B4B1B685A1C2A4B1B
:100830001A602A4B1B68002B09D1284BBA691A6031
:10084000254B1B68012B0FD100F090FA0CE0244BD4
:100850001B68002B08D1214B1B68DA6ABB6A9A42DD
:1008600002D81E4BBA691A601E4B1B685A1C1D4BDE
:100870001A60BB69DB6A01229A401B4B1B681A4352
:10088000194B1A60BB69DA6A13469B0013449B003C
:10089000164A1A44BB6904331046194600F03EFC60
:1008A0000123FB6100F00EFE02E04FF0FF33FB611D
:1008B000FB69012B0BD10A4B1B68002B07D0074BA0
:1008C0001B68DA6ABB6A9A4201D200F0DBFDFB6961
:1008D00018462037BD4680BD940100200C00002042
:1008E000A0010020B00100209C0100201000002089
:1008F00080B584B000AF78600023FB607B68002B7C
:1009000021D000F059F8144B1A687B681344BB607F
:10091000124B1B680433184600F05CFC0346002BA6
:100920000BD10E4B1B68DB6A012202FA03F3DA4398
:100930000B4B1B681A400A4B1A60B86800F050FA5B
:1009400000F048F8F860FB68002B01D100F09AFD38
:100950001037BD4680BD00BF980100200C0000206C
:100960009C01002080B586B004AF002300930023D3
:10097000019300230293002303930B480B49782231
:100980000023FFF71BFF78607B68012B09D100F083
:10099000ABFD074B01221A60064B00221A6000F0E3
:1009A00049FD0837BD4680BDB90C0008E0180008B5
:1009B000A00100209801002080B400AF044B1B6808
:1009C0005A1C034B1A60BD465DF8047B704700BF9C
:1009D000B401002080B582B000AF00237B6000F03E
:1009E00061FD334B1B685A1E314B1A60304B1B683C
:1009F000002B55D12F4B1B68002B51D02EE02E4BD6
:100A0000DB68DB683B603B681833184600F0E2FBAC
:100A10003B680433184600F0DDFB3B68DB6A0122CB
:100A20009A40264B1B681A43244B1A603B68DA6ACB
:100A300013469B0013449B00214A1A443B6804332D
:100A40001046194600F06AFB3B68DA6A1D4B1B68CA
:100A5000DB6A9A4202D31C4B01221A60164B1B68B8
:100A6000002BCCD1194B1B68002B11D00CE000F0EF
:100A70002FF80346002B02D0134B01221A60134BB0
:100A80001B685A1E114B1A60104B1B68002BEED1CD
:100A90000D4B1B68012B03D101237B6000F0F2FC9E
:100AA00000F010FD7B6818460837BD4680BD00BFCA
:100AB000B401002094010020800100209C0100204E
:100AC000100000200C000020A8010020A40100203C
:100AD00080B586B000AF00237B61494B1B68002BBB
:100AE0007DD1484B1B685A1C464B1A60454B1B680E
:100AF0003B613B69002B10D1434B1B68FB60434BB0
:100B00001A68414B1A60414BFA681A60404B1B68E7
:100B10005A1C3F4B1A6000F0C1F93E4B1B683A6902
:100B20009A424DD3384B1B681B68002B01D101231F
:100B300000E00023002B04D0364B4FF0FF321A6048
:100B40003EE0314B1B68DB68DB68BB60BB685B6801
:100B50007B603A697B689A4203D22E4B7A681A60AE
:100B60002EE0BB680433184600F034FBBB689B6A78
:100B7000002B04D0BB681833184600F02BFBBB6871
:100B8000DB6A01229A40244B1B681A43224B1A60ED
:100B9000BB68DA6A13469B0013449B001F4A1A4441
:100BA000BB6804331046194600F0B8FABB68DA6A2D
:100BB0001B4B1B68DB6A9A4201D301237B61B1E7BF
:100BC000174B1B68DA6A154913469B0013449B00B8
:100BD0000B441B68012B07D901237B6104E0114BF7
:100BE0001B685A1C0F4B1A600F4B1B68002B01D05F
:100BF00001237B617B6918461837BD4680BD00BF65
:100C0000B401002098010020780100207C01002020
:100C1000AC010020000000209C01002010000020FA
:100C20000C000020A4010020A801002080B485B0A1
:100C300000AF1C4B1B68002B03D01B4B01221A601A
:100C40002AE0194B00221A60184B1B687B607B68F6
:100C5000B3FA83F3FB70FB78C3F11F03FB60FA6800
:100C600013469B0013449B00114A1344BB60BB68AE
:100C70005B685A68BB685A60BB685A68BB680833CF
:100C80009A4204D1BB685B685A68BB685A60BB680B
:100C90005B68DA68074B1A601437BD465DF8047B61
:100CA000704700BFB4010020A80100209C01002073
:100CB000100000200C00002080B582B000AF7860EA
:100CC00000F088F8034B1B68012B01D900F0DAFB18
:100CD000F6E700BF1000002080B586B000AFF860D6
:100CE000B9607A603B6000237B6112E0BA687B697F
:100CF00013441A78F9687B690B4430331A71BA6867
:100D00007B6913441B78002B00D105E07B6901331C
:100D10007B617B691F2BE9D9FB68002283F8532094
:100D20007B680F2B01D90F237B60FB687A68DA623E
:100D3000FB687A685A65FB6800229A65FB68043391
:100D4000184600F0DFF9FB681833184600F0DAF9AE
:100D5000FB68FA681A617B68C3F11002FB689A614C
:100D6000FB68FA685A621837BD4680BD80B582B00C
:100D700000AF00237B600CE07A6813469B001344AD
:100D80009B000E4A1344184600F09CF97B6801331F
:100D90007B607B680F2BEFD9094800F093F9094875
:100DA00000F090F9084800F08DF9084B044A1A60E9
:100DB000074B044A1A600837BD4680BD100000206A
:100DC00050010020640100208001002078010020F3
:100DD0007C01002080B400AFBD465DF8047B704705
:100DE00080B582B000AF7860134B1B687A685A6098
:100DF000124B1B687A689A4209D2114B1A680E4B43
:100E00001B6804331046194600F0ACF910E00D4B96
:100E10001A68094B1B6804331046194600F0A2F902
:100E2000094B1B687A689A4202D2074B7A681A60AB
:100E30000837BD4680BD00BF0C000020980100208F
:100E40007C010020780100200000002080B584B0E3
:100E500000AF03463960FB805C2000F04DFCF86079
:100E6000FB68002B15D03B68002B06D1FB889B004C
:100E7000184600F041FC034600E03B68FA68136343
:100E8000FB681B6B002B04D1F86800F0C1FC002349
:100E9000FB60FB6818461037BD4680BD80B483B048
:100EA00000AF0E4B1B681B68002B01D1012300E033
:100EB0000023002B04D00A4B4FF0FF321A6008E0E9
:100EC000064B1B68DB68DB687B607B685A68044BF9
:100ED0001A600C37BD465DF8047B7047780100202E
:100EE0000000002080B487B000AF78603960002334
:100EF0007B6100233B610023FB6000237B6176E084
:100F00007B69012202FA03F33B613B681A683B6983
:100F10001340FB60FA683B699A4265D17B681A68A6
:100F20007B695B00032101FA03F3DB431A407B6812
:100F30001A607B681A683B681B7919467B695B00FD
:100F400001FA03F31A437B681A603B681B79012B93
:100F500003D03B681B79022B2ED17B689A687B6992
:100F60005B00032101FA03F3DB431A407B689A60BC
:100F70007B689A683B685B7919467B695B0001FA7C
:100F800003F31A437B689A607B685A687B699BB25B
:100F9000012101FA03F3DB431A407B685A607B6846
:100FA0005A683B689B7919467B699BB201FA03F347
:100FB0009BB21A437B685A607B68DA687B699BB294
:100FC0005B00032101FA03F3DB431A407B68DA601C
:100FD0007B68DA683B68DB7919467B695B0001FA5C
:100FE00003F31A437B68DA607B6901337B617B69B9
:100FF0000F2B85D91C37BD465DF8047B704700BFB9
:1010000080B483B000AF78600B467B807B687A88C1
:101010001A830C37BD465DF8047B704780B483B0FB
:1010200000AF78600B467B807B687A885A830C37E8
:10103000BD465DF8047B704780B485B000AF786032
:1010400013460A467A807B700023FB600023BB6056
:101050007A787B8803F007039B0002FA03F3FB60B6
:101060007B88DB089BB21A467B88DB089BB219465B
:101070007B68083153F821107B8803F007039B003D
:101080000F2000FA03F3DB4319407B68083243F872
:1010900022107B88DB089BB21A467B68083253F823
:1010A0002220FB681343BB607B88DB089BB21A4697
:1010B0007B680832B96843F822101437BD465DF8E2
:1010C000047B704780B483B000AF78607B6803F125
:1010D00008027B685A607B684FF0FF329A607B6839
:1010E00003F108027B68DA607B6803F108027B6821
:1010F0001A617B6800221A600C37BD465DF8047BDC
:10110000704700BF80B483B000AF78607B68002276
:101110001A610C37BD465DF8047B704780B485B01A
:1011200000AF786039607B685B68FB603B68FA6899
:101130005A60FB689A683B689A60FB689B683A68EB
:101140005A60FB683A689A603B687A681A617B6803
:101150001B685A1C7B681A601437BD465DF8047B17
:10116000704700BF80B485B000AF786039603B68DD
:101170001B68BB60BB68B3F1FF3F03D17B681B6991
:10118000FB600CE07B680833FB6002E0FB685B6897
:10119000FB60FB685B681A68BB689A42F6D9FB681B
:1011A0005A683B685A603B685B683A689A603B687B
:1011B000FA689A60FB683A685A603B687A681A6114
:1011C0007B681B685A1C7B681A601437BD465DF843
:1011D000047B704780B485B000AF78607B681B6982
:1011E000FB607B685B687A6892689A607B689B6842
:1011F0007A6852685A60FB685A687B689A4203D1E1
:101200007B689A68FB685A607B6800221A61FB68F9
:101210001B685A1EFB681A60FB681B681846143767
:10122000BD465DF8047B704780B500AF154B154A8D
:10123000D2F8882042F47002C3F88820124B124A78
:10124000126842F001021A600F4B00229A600E4AA7
:101250000D4B1B6823F0847323F4803313600A4B17
:101260000A4A5A60084B084A126822F480221A601F
:10127000054B0022DA6000F00BF8024B4FF00062E1
:101280009A6080BD00ED00E000380240103000247C
:1012900080B483B000AF00237B6000233B60354BFC
:1012A000344A126842F480321A60324B1B6803F4ED
:1012B00000333B607B6801337B603B68002B03D1CC
:1012C0007B68B3F5A06FF0D12A4B1B6803F40033A1
:1012D000002B02D001233B6001E000233B603B6810
:1012E000012B42D1234B234A126C42F080521A64E4
:1012F000214B214A126842F480421A601D4B1D4A5C
:1013000092689A601B4B1B4A926842F400429A60B2
:10131000184B184A926842F4A0529A60154B174A2B
:101320005A60144B134A126842F080721A6000BF70
:10133000104B1B6803F00073002BF9D0104B40F2E8
:1013400005621A600B4B0B4A926822F003029A6006
:10135000084B084A926842F002029A6000BF054BAF
:101360009B6803F00C03082BF9D10C37BD465DF8E0
:10137000047B70470038024000700040085440076A
:10138000003C024080B485B000AFF860B9607A607C
:10139000FB68043BFB60FB684FF080721A60FB68DF
:1013A000043BFB60BA68FB681A60FB68043BFB60A7
:1013B0000C4AFB681A60FB68143BFB607A68FB68A8
:1013C0001A60FB68043BFB60FB686FF002021A6066
:1013D000FB68203BFB60FB6818461437BD465DF890
:1013E000047B7047E913000880B500AF00F07CF87B
:1013F000FEE700BF064B19680868B0E8F04F80F3BD
:101400000988BFF36F8F4FF0000080F31188704799
:101410000C00002006480068006880F3088862B667
:1014200061B6BFF34F8FBFF36F8F00DF00BF0000C7
:1014300008ED00E080B500AF0F4B0F4A126842F490
:101440007F021A600C4B0C4A126842F07F421A600D
:1014500000F098F8094B00221A6000F0A5F8084B3C
:10146000074A126842F040421A60FFF7D3FFFFF7C5
:10147000BBFF0023184680BD20ED00E004000020E3
:1014800034EF00E080B400AF054B4FF080521A609B
:10149000BFF34F8FBFF36F8FBD465DF8047B70477E
:1014A00004ED00E080B500AF00F01EF8044B1B68AF
:1014B0005A1C034B1A60BFF34F8FBFF36F8F80BD71
:1014C0000400002080B500AF064B1B685A1E054B78
:1014D0001A60044B1B68002B02D1002000F00EF8AC
:1014E00080BD00BF04000020EFF311804FF0BF016A
:1014F00081F3118870470023184600BF80F31188DC
:10150000704700BFEFF30980BFF36F8F124B1A686B
:101510001EF0100F08BF20ED108A20E9F04F106078
:101520004DF8043D4FF0BF0080F31188FFF77EFBBC
:101530004FF0000080F3118808BC19680868B0E813
:10154000F04F1EF0100F08BFB0EC108A80F309882E
:10155000BFF36F8F704700BF0C00002080B500AF55
:10156000FFF7C2FFFFF7B4FA0346002B03D0044B8A
:101570004FF080521A600020FFF7C0FF80BD00BF0F
:1015800004ED00E080B400AF044B054A1A60054B3F
:1015900007221A60BD465DF8047B704714E000E046
:1015A0003F90020010E000E0DFF80C00016841F419
:1015B000700101607047000088ED00E080B582B0E6
:1015C00000AF78607A68174B9A420AD14FF4805086
:1015D0000121FFF79BF84FF480500021FFF796F8A8
:1015E0001CE07A68104B9A420AD14FF480400121E6
:1015F000FFF76EF84FF480400021FFF769F80DE027
:101600007A680A4B9A4209D14FF400400121FFF752
:101610005FF84FF400400021FFF75AF80837BD4645
:1016200080BD00BF0030014000380040003C004059
:1016300080B485B000AF786039600023FB817B689F
:101640001B88FB81FB8903F44153FB813B681A88AB
:101650003B685B8813439AB23B689B8813439AB2FA
:101660003B68DB8813439AB23B681B8913439AB2E9
:101670003B685B8913439AB23B689B8913439AB2D8
:101680003B68DB8913439AB2FB891343FB817B6878
:10169000FA891A807B689B8B9BB223F400639AB211
:1016A0007B689A833B681A8A7B681A821437BD4626
:1016B0005DF8047B704700BF80B483B000AF7860F2
:1016C0000B46FB70FB78002B08D07B681B889BB215
:1016D00043F040039AB27B681A8007E07B681B885E
:1016E0009BB223F040039AB27B681A800C37BD4648
:1016F0005DF8047B704700BF80B588B000AF7860AC
:1017000000237B61FFF758F93D4B1B68002B04D188
:1017100000F0B6F83A4B01221A607B68002B0DD01E
:1017200008237A6813447B607B6803F00703002B6F
:1017300004D07B6823F0070308337B607B68002BB1
:1017400057D07A6840F6F7339A4252D82D4BBB6196
:101750002C4B1B68FB6104E0FB69BB61FB691B68E8
:10176000FB61FB695A687B689A4203D2FB691B687C
:10177000002BF1D1FA69244B9A423AD0BB691A681E
:10178000082313447B61FB691A68BB691A60FB6913
:101790005A687B68D21A08235B009A4222D9FA69F8
:1017A0007B681344FB60FB695A687B68D21AFB684C
:1017B0005A60FB697A685A60FB685B68BB60114BD2
:1017C0003B6102E03B691B683B613B691B685A68EF
:1017D000BB689A42F6D33B691A68FB681A603B699A
:1017E000FA681A60094B1A68FB695B68D21A074BE2
:1017F0001A60FFF7EFF87B6918462037BD4680BDB9
:10180000C80D0020B80D0020C00D002008000020E9
:1018100080B586B000AF78607B683B617B68002B49
:1018200027D008235B423A6913443B613B69FB6064
:10183000FFF7C2F8FB685B68BB600F4B7B6102E09F
:101840007B691B687B617B691B685A68BB689A422D
:10185000F6D37B691A68FB681A607B69FA681A60BC
:10186000FB685A68054B1B681A44044B1A60FFF763
:10187000B1F81837BD4680BDB80D00200800002023
:1018800080B483B000AF0F4B23F007037B600E4B97
:101890007A681A600C4B00225A600C4B40F6F83202
:1018A0005A600A4B00221A607B683B603B6840F636
:1018B000F8325A603B68054A1A600C37BD465DF83D
:1018C000047B7047C0010020B80D0020C00D00202F
:1018D000764C45440000000076535049000000005B
:0818E00049444C4500000000E2
:0C18E800FFFFFFFFAAAAAAAAF80B00004D
:0400000508000000EF
:00000001FF
