:020000040800F2
:10000000D01500208D010008890100088901000831
:10001000890100088901000889010008000000002A
:10002000000000000000000000000000510C00086B
:100030008901000800000000D10C0008210D000813
:100040008901000889010008890100088901000868
:100050008901000889010008890100088901000858
:100060008901000889010008890100088901000848
:100070008901000889010008890100088901000838
:100080008901000889010008890100088901000828
:100090008901000889010008890100088901000818
:1000A0008901000889010008890100088901000808
:1000B00089010008890100088901000889010008F8
:1000C00089010008890100088901000889010008E8
:1000D000DD03000889010008890100088901000882
:1000E00089010008890100088901000889010008C8
:1000F00089010008890100088901000889010008B8
:1001000089010008890100088901000889010008A7
:100110008901000889010008890100088901000897
:100120008901000889010008890100088901000887
:100130008901000889010008890100088901000877
:100140008901000889010008890100088901000867
:100150008901000889010008890100088901000857
:100160008901000889010008890100088901000847
:100170008901000889010008890100088901000837
:100180008901000889010008FEE700BF10B5134B84
:10019000134A9A420DD2131D124CE41A24F00304A0
:1001A00004340023104610495A581A500433A3420D
:1001B000FAD10E480E494FF000028842B8BF40F80D
:1001C000042BFFF6FAAFDFF82C00016841F4700150
:1001D000016000F097FC00F0D5F810BD0C00002085
:1001E000000000200F000020881000080C000020F4
:1001F000D00D002088ED00E070B582B0082001210C
:1002000000F008F94FF47043009301238DF8043097
:1002100000238DF8063003228DF805208DF8073075
:100220001848694600F0BEFB164D4FF480564FF457
:10023000FA742846314600F0FDFB204600F060FBD2
:1002400028464FF4005100F0F5FB204600F058FB23
:1002500028464FF4804100F0EDFB204600F050FBB3
:1002600028464FF4004100F0E5FB204600F048FB33
:1002700028464FF4704100F0DFFB204600F040FBC1
:10028000D7E700BF000C024070B588B04FF4804043
:10029000012100F0CDF80220012100F0BBF8384D1B
:1002A00028460C21052200F0C9FB28460D21052215
:1002B00000F0C4FB28460E21052200F0BFFB2846B3
:1002C0000F21052200F0BAFB4FF46043069302268B
:1002D0008DF81C608DF81D6000248DF81E408DF88F
:1002E0001F40284606A900F05DFB4FF4805306939B
:1002F0008DF81C608DF81D608DF81E408DF81F4034
:10030000284606A900F04EFBA5F5E635284600F084
:1003100043FD1823ADF81030ADF80440ADF80640A9
:10032000ADF80840ADF80E40ADF81240ADF80A4007
:10033000ADF80C40284601A900F060FD28460121D7
:1003400000F07EFD2C460126022501E000F08EFC27
:100350002046314600F088FD0028F7D0204600F006
:100360007DFDC1B2204600F07DFD01E000F07EFC85
:100370002046294600F078FD0028F7D0E8E700BFC6
:100380000004024010B584B0012000F03BF800F0FA
:100390008DF80028FBD0002400940194029403946B
:1003A0000A480B497822234600F0CAF800940194C9
:1003B00002940394074808497822234600F0C0F8C5
:1003C00000F08AF9204604B010BD00BFF901000812
:1003D00070100008890200087810000808B5074866
:1003E000012100F041FD012806D1044B9B89044BFB
:1003F0005A6982F440725A6108BD00BF003800405B
:1004000000080240024B00221A701870704700BFAB
:100410000238024021B1054B1A6B10431863704734
:10042000024B1A6B22EA0000186370470038024042
:1004300021B1054B1A6C104318647047024B1A6CBB
:1004400022EA0000186470470038024021B1054BD1
:100450001A6A104318627047024B1A6A22EA0000B7
:10046000186270470038024021B1054B5A6A1043A8
:1004700058627047024B5A6A22EA0000586270477D
:10048000003802404309012B02D1074B1B6804E0EE
:10049000022B054B0CBF1B6F5B6F00F01F0023FA94
:1004A00000F000F0010070470038024010B582B043
:1004B0000023019331242046FFF7E4FF019B013321
:1004C0000193019BB3F5A06F01D00028F3D0312038
:1004D000FFF7D8FF003018BF012002B010BD00BFE9
:1004E00008B5034C2368012BFCD900F0BFFBF9E7EA
:1004F0000C00002010B504460F4BD3F8402150608B
:10050000D3F84431984208D20B4BD3F84801D3F8C2
:100510004011043100F0C4FA10BD074BD3F84C0170
:10052000D3F84011043100F0BBFA044B1B689C4225
:100530003CBF024B1C6010BD0C00002000000020DE
:100540002DE9F84F81460E4693469A460A9FDDF8FC
:100550002C800C9D582000F08DFC0446002800F0F3
:10056000B480002D40F0AE804FEA8B0000F082FC9A
:10057000206318B9204600F0DFFCA6E0A5214FEA71
:100580008B0200F0F9FC0BF1804B0BF1FF3B236B6E
:1005900003EB8B0B2BF0070B04F1340031462022C8
:1005A00000F034FD002384F853300F2F34BF3D4654
:1005B0000F25E5626565261D304600F05FFA04F1FF
:1005C000180000F05BFA2461C5F11005A5616462B2
:1005D00058464946524600F029FB2060B8F1000F0A
:1005E00001D0C8F8004000F055FB3A4BD3F8502139
:1005F0000132C3F85021D3F840311BBB354BC3F84F
:100600004041D3F85031012B29D1324D05F5A07866
:10061000284600F027FA14354545F9D12D4D05F54A
:10062000AA79484600F01EFA05F5B478404600F075
:1006300019FA05F5BE7000F015FAC5F84C91C5F829
:1006400048810CE0234BD3F8903143B9214BD3F8C8
:100650004031DB6A9F4224BF1E4BC3F84041E36A2E
:100660001C4AD2F89421934284BF1A4AC2F89431AA
:10067000184AD2F898110131C2F89811D2F89C2189
:10068000934284BF134AC2F89C31124C03EB83009F
:1006900004EB8000314600F0F5F900F00DFBD4F8D2
:1006A00090314BB1D4F84031DB6A9F4207D900F05A
:1006B000DDFA0120BDE8F88F0120BDE8F88F0120A8
:1006C000BDE8F88F0563284658E74FF0FF30BDE8D6
:1006D000F88F00BF0C00002000B585B00023009308
:1006E0000193029303930A480A497822FFF728FFEF
:1006F00001280AD100F0C6FA074B0122C3F8902165
:100700000022C3F8442100F027FB05B05DF804FB8C
:10071000E1040008801000080C000020034BD3F80F
:10072000A0210132C3F8A021704700BF0C000020B7
:1007300070B53D4BD3F8A031002B6ED13A4BD3F8B6
:1007400044210132C3F84421D3F84431F3B9364B84
:10075000D3F84C21D3F84811C3F84C11C3F8482101
:10076000D3F8A4210132C3F8A421D3F84C311B687B
:1007700023B94FF0FF322D4B1A6007E02A4BD3F814
:100780004C31DB68DB685A68284B1A60264BD3F87B
:100790004421264B1B689A4245D3234BD3F84C3156
:1007A0001B6853B1204AD2F84C31DB68DC686368BF
:1007B000D2F84421934211D90DE04FF0FF321B4B88
:1007C0001A6070BDD5F84C31DB68DC686368D5F819
:1007D0004421934203D9154A136070BD124D261D62
:1007E000304600F07BF9A36A1BB104F1180000F059
:1007F00075F9E36AD5F89C21934288BFC5F89C310E
:1008000003EB830005EB8000314600F03BF9D5F89F
:100810004C311B68002BD5D1CFE7034BD3F8A8216F
:100820000132C3F8A82170BD0C0000200000002098
:10083000F8B500F02FFA314BD3F8A021013AC3F8F4
:10084000A021D3F8A031002B4FD12C4BD3F850313D
:10085000002B4CD00027294C1FE0D4F88831DD68EC
:1008600005F1180000F03AF92E1D304600F036F977
:10087000EB6AD4F89C21934288BFC4F89C3103EB07
:10088000830004EB8000314600F0FCF8D4F84031DE
:10089000EA6ADB6A9A4228BF0127D4F87C31002B30
:1008A000DBD1164BD3F8A83183B1144BD3F8A83160
:1008B0009BB1124CFFF73CFFD4F8A831013BC4F8C0
:1008C000A831D4F8A831002BF4D106E0012F04D0D0
:1008D0000A4BD3F8AC31012B0BD10022074BC3F8E4
:1008E000AC2100F0C3F9012404E0002402E000245C
:1008F00000E0002400F0E0F92046F8BD0C000020E4
:1009000010B5044680B1FFF709FF094BD3F8442125
:100910001444D3F84001043000F0E0F82046FFF71B
:10092000E9FDFFF785FF08B900F0A0F910BD00BF91
:100930000C0000201A4BD3F8A03143B9184BD3F860
:100940009C2102EB820292009B582BB112E0012203
:10095000134BC3F8AC217047114BD3F89C21013ADB
:10096000C3F89C21D3F89C2102EB820253F8222089
:10097000002AF2D00A4AD2F89C3103EB830302EB3F
:1009800083035A6852685A6003F108018A4204BF1F
:1009900052685A605B68DA68014BC3F840217047BF
:1009A0000C000020F0B400230125032605FA03F211
:1009B0000C681440944238D107685A0006FA02F4D1
:1009C000E44327400760076891F804C00CFA02FC72
:1009D0004CEA070707600F79013FFFB2012F16D8D5
:1009E00087683C40846087684C7994403C438460CD
:1009F00047689CB205FA04FC27EA0C074760476881
:100A000091F806C00CFA04F4A4B23C434460C768F1
:100A10009CB2640006FA04F427EA0404C460C468C3
:100A2000CF7907FA02F22243C2600133102BBDD105
:100A3000F0BC7047018370474183704710B401F0E8
:100A400007039B00C90800EB8100046A0F2199404D
:100A500024EA01010162016A9A40114301625DF8D2
:100A6000044B704700F1080343604FF0FF3282608F
:100A7000C360036100230360704700BF002303616C
:100A8000704700BF43685A684A6042688A605A6883
:100A900091605960416008610368013303607047E9
:100AA00010B40C68B4F1FF3F01D103690AE000F112
:100AB0000803C2681268944204D35B685A681268DB
:100AC0009442FAD25A684A6091608B60596008611A
:100AD0000368013303605DF8044B70474368826824
:100AE0009A60836842685A6003695A68824204BF08
:100AF00082685A60002202611A68013A1A60186816
:100B0000704700BF82B0394BD3F8882042F470029E
:100B1000C3F88820364B1A6842F001021A6000229E
:100B20009A60196821F0847121F48031196031498B
:100B30005960196821F480211960DA6000920192ED
:100B40001A6842F480321A601A46136803F40033BC
:100B50000193009B01330093019B1BB9009BB3F5EC
:100B6000A06FF2D1224B1B6813F4003F14BF012386
:100B700000230193019B012B32D11D4B1A6C42F0D3
:100B800080521A641C4A116841F4804111609A68CD
:100B90009A609A6842F400429A609A6842F4A052BD
:100BA0009A60164A5A601A6842F080721A601A46B1
:100BB000136813F0007FFBD040F20562104B1A60FF
:100BC000A3F580639A6822F003029A609A6842F063
:100BD00002029A601A46936803F00C03082BFAD1BC
:100BE0004FF00062014B9A6002B0704700ED00E0E8
:100BF00000380240103000240070004008544007C4
:100C0000003C024003480068006880F3088862B630
:100C100000DF00BF08ED00E0DFF80C00016841F4E0
:100C2000700101607047000088ED00E04FF08073B4
:100C300040F8043C40F8081C002340F80C3C40F805
:100C4000202C6FF0020340F8243C4438704700BF6A
:100C5000054B19680868B0E8F04F80F309884FF039
:100C6000000080F3118870474C0100204FF0805243
:100C7000034B1A60BFF34F8FBFF36F8F704700BFF6
:100C800004ED00E0EFF311804FF0BF0181F3118814
:100C90007047002008B5FFF7F5FF044B1A680132D2
:100CA0001A60BFF34F8FBFF36F8F08BD04000020A1
:100CB00080F31188704700BF08B5044A1368013BF0
:100CC000136013B90020FFF7F3FF08BD04000020F4
:100CD000EFF30980114B1A681EF0100F08BF20EDCA
:100CE000108A20E9F04F10602DE908404FF0BF0056
:100CF00080F31188FFF71EFE4FF0000080F311888B
:100D0000BDE8084019680868B0E8F04F1EF0100F01
:100D100008BFB0EC108A80F3098870474C010020AE
:100D200008B54FF08052054B1A60FFF7ABFFFFF795
:100D3000FFFC0020FFF7BCFF08BD00BF04ED00E092
:100D4000034A044B1A600722043B1A60704700BF35
:100D50003F90020014E000E010B50C4B1A6842F41A
:100D60007F021A601A6842F07F421A60FFF7E8FFBC
:100D70000024074B1C60FFF74FFF064B1A6842F038
:100D800040421A60FFF73EFF204610BD20ED00E014
:100D90000400002034EF00E008B5154B98420AD15A
:100DA0004FF480500121FFF75FFB4FF4805000218A
:100DB000FFF75AFB08BD0F4B98420AD14FF4804011
:100DC0000121FFF743FB4FF480400021FFF73EFB7A
:100DD00008BD094B984209D14FF400400121FFF7AB
:100DE00035FB4FF400400021FFF730FB08BD00BF8A
:100DF0000030014000380040003C004010B4028840
:100E000002F441524C880B8823438C882343CC88BE
:100E100023430C8923434C8923438C892343CC8966
:100E2000234313439BB20380838B23F400631B048F
:100E30001B0C83830B8A03825DF8044B704700BF51
:100E400029B103889BB243F04003038070470388B5
:100E500023F040031B041B0C03807047808980B281
:100E6000704700BF81817047038919420CBF002081
:100E70000120704770B50446FFF750FC2B4B9B6870
:100E80009BB92A4B03F1140222F007021A600020DA
:100E9000586040F6F831C3F8101CC3F80C0C5160D0
:100EA00003F60C41116001229A60002C34D004F149
:100EB000100111F0070F1CBF21F0070108314A1E75
:100EC00040F6F6339A4229D8184C23685A68914262
:100ED00004D91A6812B11C461346F7E7144A934224
:100EE0001ED0266810361A6822605A68521A202AC4
:100EF0000CD958184260596045680C490A68546812
:100F0000A54201D91146F9E702600860094A116853
:100F10005B68C91A116004E0002602E0002600E0C8
:100F20000026FFF785FC304670BD00BFBC010020E5
:100F3000C80D00200800002070B50546B8B1A0F12A
:100F40001006FFF7EBFB55F80C4C094A136859687B
:100F50008C4201D91A46F9E745F8103C1660054B5A
:100F60001A6855F80C1C0A441A60FFF761FC70BD42
:100F7000BC01002008000020F0B4840743D0541EB8
:100F8000002A3ED0CDB2034603E0621E002C38D0CA
:100F9000144603F8015B9A07F7D1032C2AD9CDB286
:100FA00045EA05250F2C45EA054515D9A4F110079A
:100FB0003F0903F1100606EB07161A461560556047
:100FC0009560D5601032B242F8D104F00F040137B9
:100FD000032C03EB07130DD91E462246043A032ABD
:100FE00046F8045BFAD8221F22F0030204321344AD
:100FF00004F003042CB1C9B21C4403F8011BA34242
:10100000FBD1F0BC704714460346C6E740EA010333
:101010009B0770B42AD1032A28D90C4603462146DF
:1010200054F8045BA5F1013626EA050616F0803F68
:1010300005D1043A032A43F8045B2146EFD89AB15C
:101040000C781C70013A01333CB16AB111F8014FC0
:1010500003F8014B013A002CF7D12AB11A440021C0
:1010600003F8011B9342FBD170BC70470346E6E7CF
:10107000764C4544000000007653504900000000C3
:0810800049444C45000000004A
:0C108800FFFFFFFFAAAAAAAAF80B0000B5
:0400000508000000EF
:00000001FF
