:020000040800F2
:100000001012002025010008850100088501000864
:100010008501000885010008850100080000000036
:10002000000000000000000000000000B51E0008F5
:100030008501000800000000911F0008CD1F000886
:100040008501000885010008850100088501000878
:100050008501000885010008850100088501000868
:100060008501000885010008850100088501000858
:100070008501000885010008850100088501000848
:1000800085010008850100088501000800000000C6
:1000900000000000000000000000000085010008D2
:1000A0008501000885010008850100088501000818
:1000B0008501000885010008850100088501000808
:1000C00085010008850100088501000885010008F8
:1000D00085010008850100088501000885010008E8
:1000E0008501000885010008850100080000000066
:1000F0000000000000000000000000000000000000
:1001000000000000000000000000000000000000EF
:1001100000000000000000008501000885010008C3
:100120005FF808F180B582B000AF114B7B60114BD6
:100130003B6007E03B681A1D3A607A68111D7960E0
:1001400012681A603A680C4B9A42F3D30B480C4978
:100150004FF000028842B8BF40F8042BFFF6FAAF18
:1001600000F014F800F0A4FE0837BD4680BD00BFC3
:10017000202400080000002024000020240000208B
:10018000100E002080B400AFFEE700BF80B500AFC6
:10019000164B164A126842F001021A60134A134BBA
:1001A0005968134B0B405360104A104B1B6823F0E7
:1001B000847323F4803313600C4B0C4A126822F4CE
:1001C00080221A60094B094A526822F4FE025A60E2
:1001D000064B4FF41F029A60044B0022DA6200F0D3
:1001E0000BF8044B4FF000629A6080BD0010024093
:1001F0000000FFF800ED00E080B500AF00F002F86D
:1002000080BD00BF80B483B000AF00237B600023BB
:100210003B60304B2F4A126842F480321A602D4BFB
:100220001B6803F400333B607B6801337B603B68F1
:10023000002B03D17B68B3F5A06FF0D1254B1B6871
:1002400003F40033002B02D001233B6001E00023C4
:100250003B603B68012B37D11E4B1E4A52685A60E7
:100260001C4B1C4A52685A601A4B1A4A52685A6010
:10027000184B184A526822F47C125A60154B154AE2
:10028000526842F498125A60124B124A126842F0B5
:1002900080721A6000BF0F4B1B6803F00073002BC5
:1002A000F9D00C4B0B4A526822F003025A60094BFA
:1002B000084A526842F002025A6000BF054B5B6870
:1002C00003F00C03082BF9D10C37BD465DF8047B15
:1002D000704700BF0010024080B500AF0A2001F057
:1002E0001FF980BD80B500AF124B124A52685A60A8
:1002F000104A104B1B6843F0111343F488531360EA
:100300000C4B0C4A52685A600A4A0A4B1B6823F08D
:10031000EE1323F46E43136000F0A4F801200121D2
:10032000002200F06FF800F065F80620002100F0D0
:10033000D5F880BD0010014080B584B000AF034601
:100340003960FB71FB79DB00DBB2DBB243F04003C9
:10035000DBB2DBB21846002100F0C0F80023FB73CB
:100360000AE0FB7B3A6813441B781846012100F031
:10037000B5F8FB7B0133FB73FB7B072BF1D98020A6
:10038000002100F0ABF81037BD4680BD80B582B0CB
:1003900000AF02460B46FA71BB71BB79002B08D146
:1003A000FB7963F07F03DBB21846002100F096F87A
:1003B00007E0FB7963F03F03DBB21846002100F051
:1003C0008DF80837BD4680BD80B582B000AF78603B
:1003D00008E07B681B781846012100F07FF87B68F5
:1003E00001337B607B681B78002BF2D10837BD4658
:1003F00080BD00BF80B500AF0120002100F06EF885
:1004000080BD00BF80B582B000AF13460246FA71CE
:100410000A46BA717B71FB79002B04D108200021B8
:1004200000F05CF81BE0BB79002B0CD17B79002B32
:1004300004D10C20002100F051F810E00D20002123
:1004400000F04CF80BE07B79002B04D10E2000214A
:1004500000F044F803E00F20002100F03FF80837D7
:10046000BD4680BD80B500AF1B4B4FF47C121A61B6
:10047000194B02221A61184B20221A61FFF72CFF38
:10048000154B4FF400121A61FFF726FF124B4FF481
:100490007C121A61104B02221A610F4B20221A6142
:1004A000FFF71AFF0C4B4FF400121A61FFF714FF0D
:1004B000094B4FF47C121A61074B08221A61064B54
:1004C00020221A61FFF708FF034B4FF400121A6154
:1004D000FFF702FF80BD00BF0010014080B582B071
:1004E00000AF02460B46FA71BB71334B4FF47C12DE
:1004F0001A61BB79002B02D02F4B10221A61FB79B5
:1005000003F01003002B02D02B4B01221A61FB7960
:1005100003F02003002B02D0274B02221A61FB7943
:1005200003F04003002B02D0234B04221A61FB7915
:100530005BB2002B02DA204B08221A611E4B2022EC
:100540001A61FFF7C9FE1C4B4FF400121A61FFF746
:10055000C3FE194B4FF470221A61FB7903F00103BB
:10056000002B02D0144B01221A61FB7903F0020325
:10057000002B02D0104B02221A61FB7903F0040316
:10058000002B02D00C4B04221A61FB7903F0080304
:10059000002B02D0084B08221A61074B20221A6157
:1005A000FFF79AFE044B4FF400121A61FFF794FE16
:1005B0000837BD4680BD00BF0010014080B489B03F
:1005C00000AF786039600023FB6100233B610023AA
:1005D000BB610023FB6000237B610023BB603B68A1
:1005E000DB7803F00F03FB613B68DB7803F010035B
:1005F000002B04D03B689B78FA691343FB613B688E
:100600001B88DBB2002B44D07B681B687B61002316
:10061000BB6138E0BB69012202FA03F3FB603B686F
:100620001B881A46FB6813403B613A69FB689A4293
:1006300026D1BB699B00FB60FB680F2202FA03F323
:10064000BB60BB68DB437A6913407B61FB68FA6976
:1006500002FA03F37A6913437B613B68DB78282B4A
:1006600005D1BB6901229A407B685A6108E03B686A
:10067000DB78482B04D1BB6901229A407B681A6160
:10068000BB690133BB61BB69072BC3D97B687A693E
:100690001A603B681B88FF2B46D97B685B687B61CF
:1006A0000023BB613AE0BB690833012202FA03F37D
:1006B000FB603B681B881A46FB6813403B613A6944
:1006C000FB689A4227D1BB699B00FB60FB680F2245
:1006D00002FA03F3BB60BB68DB437A6913407B61BA
:1006E000FB68FA6902FA03F37A6913437B613B689A
:1006F000DB78282B05D1BB69083301229A407B683F
:100700005A613B68DB78482B05D1BB69083301226D
:100710009A407B681A61BB690133BB61BB69072BD7
:10072000C1D97B687A695A602437BD465DF8047B7D
:10073000704700BF80B483B000AF78600B467B8009
:100740007A887B681A610C37BD465DF8047B704778
:1007500080B483B000AF78600B467B807A887B687A
:100760005A610C37BD465DF8047B704780B485B094
:1007700000AF3B600346FB710B46BB7113467B71B8
:10078000FF23BB73C022BB7B5340DBB2374AD35C31
:10079000BB73BA7BFB795340DBB2344AD35CBB7387
:1007A000BA7BBB795340DBB2304AD35CBB73BA7BB4
:1007B0007B795340DBB22D4AD35CBB730023FB73C0
:1007C0000CE0FB7B3A6813441A78BB7B5340DBB2E6
:1007D000264AD35CBB73FB7B0133FB73FA7B7B79CB
:1007E0009A42EED3BB79002B0DD13B681B78502B7E
:1007F00002D11F4B01221A703B681B78512B02D18A
:100800001B4B00221A70BB79012B06D1194B012218
:100810001A703B681A78184B1A70BB79022B06D1F4
:10082000144B02221A703B681A78134B1A70BB796A
:10083000032B06D10F4B03221A703B681A780E4B1C
:100840001A70BB79042B06D10A4B04221A703B683C
:100850001A78094B1A70BB79052B02D1074B01227C
:100860001A701437BD465DF8047B7047E422000817
:100870000000002024000020250000202600002089
:1008800080B584B000AF0346FB800023FB6000BF4F
:100890001148402101F0DEF90346002BF8D0FB8817
:1008A0000D48194601F0B4F900BF0B48402101F092
:1008B000D1F90346002BF8D00023FB6003E000BF12
:1008C000FB680133FB60FA6845F6BF539A42F6DDD8
:1008D0001037BD4680BD00BF0038014080B584B0F0
:1008E00000AF13460246FA710A46BA717B71FF23C4
:1008F000FB73FA7B7B795340DBB2104AD35CFB730A
:10090000C0231846FFF7BCFFFB799BB21846FFF7E0
:10091000B7FFBB799BB21846FFF7B2FF0120FFF784
:10092000AFFF7B799BB21846FFF7AAFFFB7B9BB218
:100930001846FFF7A5FF1037BD4680BDE42200082A
:1009400080B58EB002AF786044F20400012100F05F
:10095000E7FC4FF40073BB831823FB770323BB77BB
:1009600007F11C037D481946FFF728FE4FF480630A
:10097000BB830423FB7707F11C0378481946FFF774
:100980001DFE4FF41653FB6000233B8200237B8245
:100990000023BB8200233B830C23FB8207F10C0363
:1009A0006F48194601F05AF86D48012101F010F91D
:1009B000002387F82730002387F82630002387F8A4
:1009C0002530002387F82430002387F82330644B38
:1009D0001B889BB203F02003002B00F0BB80604813
:1009E00001F028F90346FB62C0231A46FB6A9A42CB
:1009F0001CD197F82630012B14D1002387F824301E
:100A0000002387F82730FF23BB62564800214FF4AC
:100A1000807201F0E9FB07F1080318460021042267
:100A200001F0E2FB012387F8263093E097F82630A7
:100A3000012B40F08F80DC231A46FB6A9A4207D1D3
:100A4000DB231A46BB6A9A4202D1C023FB620BE049
:100A5000DD231A46FB6A9A4206D1DB231A46BB6A9B
:100A60009A4201D1DB23FB62FB6ABB6297F8273015
:100A7000042B6ED801A252F823F000BF910A00089F
:100A8000530B00089F0A0008B30A0008C70A0008B1
:100A9000FB6ADBB27B72022387F827305AE0FB6ADD
:100AA000DBB2BB72FB6A87F82530032387F8273057
:100AB00050E0FB6ADBB2FB72FB6A87F82330042349
:100AC00087F8273046E0FB7A97F824209A420BD229
:100AD00097F82430FA6AD1B2224AD15497F82430D8
:100AE000013387F8243033E0FB7A97F824209A42C8
:100AF0002ED3FB6ADBB27B73797A787B97F825205B
:100B000097F823300090084611461A46154BFFF718
:100B10002DFE002387F82430002387F82730002398
:100B200087F82630002387F82530002387F8233004
:100B3000FF23BB620B4800214FF4807201F054FB8D
:100B400007F1080318460021042201F04DFB01E0E3
:100B500000E000BF01F0E4F939E700BF0008014000
:100B6000003801402800002080B582B000AF00F0BE
:100B7000F3F94FF4803000F021FA00F04DFA03460B
:100B8000FB71FB79012B28D1102001F051F90020D5
:100B900001F032F9002000F0C1FA002000F0F6FA6E
:100BA000002000F0D7FA4FF480304FF4802100F09D
:100BB0005BFA012000F076FA00BF392000F0CEFB8E
:100BC0000346002BF9D0022000F07CFA00BF00F0B1
:100BD00095FA0346082BFAD100E0FEE70837BD4638
:100BE00080BD00BF80B584B000AF786010200121C7
:100BF00000F096FBFFF776FB0E233B7211237B720E
:100C00001123BB721123FB7211233B730A237B73E5
:100C10001123BB731123FB7307F10803002019464E
:100C2000FFF78AFB0948FFF7CFFB00200121FFF700
:100C3000ADFB00200121FFF751FC01200021002223
:100C4000FFF7E0FB01F06CF9FCE700BFE4230008CC
:100C500080B584B000AF78601020012100F060FB07
:100C60000323BB731023FB734FF44073BB8107F165
:100C70000C0314481946FFF7A1FC12484FF4807189
:100C8000FFF758FD42F2107000F04AFC0D484FF497
:100C90000071FFF74FFD42F2107000F041FC09486F
:100CA0004FF48071FFF754FD42F2107000F038FCF1
:100CB00004484FF40071FFF74BFD42F2107000F052
:100CC0002FFCDAE70010014080B584B000AF7860F7
:100CD0000420012100F024FB0323BB731023FB73CA
:100CE0000F23BB8107F10C036D481946FFF766FC23
:100CF0006C4B1B78013B032B00F2B88001A252F829
:100D000023F000BF150D00086B0D0008C10D000891
:100D1000170E000862480121FFF70CFD6048022110
:100D2000FFF716FD5E480421FFF704FD5C4808212B
:100D3000FFF70EFD5C4B1B781A4613469B001344CD
:100D40005B00184600F0ECFB564B00221A70564B25
:100D500000221A70554B1B78002B05D0072001216B
:100D60000122FFF7BBFD88E087E04D480121FFF736
:100D7000EFFC4B480221FFF7DDFC49480421FFF757
:100D8000E7FC47480821FFF7D5FC474B1B781A467C
:100D900013469B0013445B00184600F0C1FB414B17
:100DA00000221A70404B00221A70404B1B78002B17
:100DB00005D0072002210222FFF790FD5DE05CE0F4
:100DC00037480121FFF7B6FC35480221FFF7C0FC88
:100DD00033480421FFF7BCFC31480821FFF7AAFC87
:100DE000314B1B781A4613469B0013445B00184690
:100DF00000F096FB2B4B00221A702B4B00221A702E
:100E00002A4B1B78002B05D0072003210322FFF774
:100E100065FD32E031E022480121FFF799FC2048CE
:100E20000221FFF787FC1E480421FFF783FC1C48C2
:100E30000821FFF78DFC1C4B1B781A4613469B00BC
:100E400013445B00184600F06BFB164B00221A702F
:100E5000154B00221A70154B1B78002B05D007206C
:100E600004210422FFF73AFD07E006E00D4B0022C3
:100E70001A700D4B00221A7000BF09480121FFF7BC
:100E800067FC07480221FFF763FC05480421FFF7D0
:100E90005FFC03480821FFF75BFC01F041F827E7FE
:100EA0000008014024000020250000200000002050
:100EB00080B584B004AFFFF757FE002300930023F2
:100EC000019300230293002303931B481B497822BC
:100ED000002300F07DFA00230093002301930023F8
:100EE000029300230393164816497822002300F04A
:100EF0006FFA002300930023019300230293002341
:100F00000393114811497822002300F061FA00236D
:100F100000930023019300230293002303930C48C2
:100F20000C497822002300F053FA00F021FB002343
:100F30001846BD4680BD00BF510C0008F4230008D0
:100F4000C90C0008FC23000841090008042400081B
:100F5000E50B00081024000880B400AF154B154ABB
:100F6000126842F001021A60124A124B5968124B81
:100F70000B4053600F4A0F4B1B6823F0847323F41C
:100F8000803313600B4B0B4A126822F480221A60E4
:100F9000084B084A526822F4FE025A60054B4FF48F
:100FA0001F029A60034B0022DA62BD465DF8047BA3
:100FB000704700BF001002400000FFF880B483B00B
:100FC00000AF7860134B134A126822F480321A6023
:100FD000104B104A126822F480221A607B68B3F525
:100FE000803F03D0B3F5802F07D00DE0094B094AAD
:100FF000126842F480321A6006E0064B054A126815
:1010000042F4A0221A6000BF0C37BD465DF8047B95
:10101000704700BF0010024080B582B000AF0023CF
:101020003B600023FB710023BB71312000F096F977
:101030000346BB713B6801333B603B68B3F5A06F6F
:1010400002D0BB79002BF0D0312000F087F90346A5
:10105000002B02D00123FB7101E00023FB71FB791F
:1010600018460837BD4680BD80B485B000AF7860B3
:1010700039600023FB600A4B5B68FB60FB6823F46C
:101080007413FB607A683B681343FA681343FB6090
:10109000034BFA685A601437BD465DF8047B70470D
:1010A0000010024080B483B000AF0346FB71044BD4
:1010B000FA791A600C37BD465DF8047B704700BFB3
:1010C0006000424280B485B000AF78600023FB60CE
:1010D000094B5B68FB60FB6823F00303FB60FA6865
:1010E0007B681343FB60044BFA685A601437BD46B3
:1010F0005DF8047B704700BF0010024080B400AF71
:10110000054B5B68DBB203F00C03DBB21846BD464F
:101110005DF8047B704700BF0010024080B485B0CA
:1011200000AF78600023FB60094B5B68FB60FB68E5
:1011300023F0F003FB60FA687B681343FB60044B09
:10114000FA685A601437BD465DF8047B704700BFEB
:101150000010024080B485B000AF78600023FB60CF
:10116000094B5B68FB60FB6823F4E063FB60FA6893
:101170007B681343FB60044BFA685A601437BD4622
:101180005DF8047B704700BF0010024080B485B05A
:1011900000AF78600023FB60094B5B68FB60FB6875
:1011A00023F46053FB607B68DB00FA681343FB6049
:1011B000034BFA685A601437BD465DF8047B7047EC
:1011C0000010024080B489B000AF78600023FB615A
:1011D0000023BB6100237B6100233B610023FB6094
:1011E0004A4B5B6803F00C03FB61FB69042B07D0DF
:1011F000082B09D0002B2FD17B68454A1A602FE0BD
:101200007B68434A1A602BE0404B5B6803F4701321
:10121000BB613E4B5B6803F480337B61BB699B0C15
:101220000233BB617B69002B06D1BB69394A02FBE3
:1012300003F27B681A6013E0344BDB6A03F00F03A0
:101240000133FB60324AFB68B2FBF3F3BA6902FB7D
:1012500003F27B681A6003E07B682D4A1A6000BFC6
:101260002A4B5B6803F0F003FB61FB691B09FB6120
:10127000294AFB6913441B78DBB23B617B681A681F
:101280003B69DA407B685A60204B5B6803F4E0639B
:10129000FB61FB691B0AFB611F4AFB6913441B7856
:1012A000DBB23B617B685A683B69DA407B689A60D5
:1012B000164B5B6803F46053FB61FB69DB0AFB615F
:1012C000154AFB6913441B78DBB23B617B685A68A3
:1012D0003B69DA407B68DA600C4B5B6803F440439F
:1012E000FB61FB699B0BFB610C4AFB6913441B7898
:1012F000DBB23B617B68DA683B69B2FBF3F27B6887
:101300001A612437BD465DF8047B70470010024027
:1013100000127A0000093D000400002014000020A3
:1013200080B483B000AF78600B46FB70FB78002B75
:1013300006D0094B084A91697A680A439A6106E027
:10134000054B054A91697A68D2430A409A610C3785
:10135000BD465DF8047B70470010024080B487B042
:1013600000AF0346FB710023FB6000237B61002379
:10137000FB74FB795B09DBB2FB60FB68012B03D1DB
:10138000124B1B687B6109E0FB68022B03D10F4BFA
:101390001B6A7B6102E00D4B5B6A7B61FB7903F0AA
:1013A0001F03FB60FB687A6922FA03F303F0010371
:1013B000002B02D00123FB7401E00023FB74FB7CB3
:1013C00018461C37BD465DF8047B7047001002408C
:1013D00080B58AB002AFF860B9603B601346FB800D
:1013E000FB881846396B00F007FBB861BB69002B1E
:1013F00070D0BB691A6BFB8803F18043013B9B00F3
:1014000013447B617B6923F007037B61FB880093B6
:10141000B869B968BA6A7B6B00F04CFA7869F96808
:101420003A6800F01DFD0246BB691A60FB6A002B9A
:1014300002D0FB6ABA691A6000F07EFD314B1B686E
:101440005A1C304B1A60304B1B68002B09D12E4BB5
:10145000BA691A602B4B1B68012B0FD100F05CFAA4
:101460000CE02A4B1B68002B08D1274B1B68DA6A5B
:10147000BB6A9A4202D8244BBA691A60BB69DA6A1D
:10148000234B1B689A4203D9BB69DA6A204B1A6066
:10149000204B1B685A1C1F4B1A60BB69DA6A1E4B33
:1014A0001B689A4203D9BB69DA6A1B4B1A60BB6995
:1014B000DA6A13469B0013449B00184A1A44BB691E
:1014C00004331046194600F00DFC0123FB6100F0C7
:1014D0003FFD02E04FF0FF33FB61FB69012B0BD1B5
:1014E0000A4B1B68002B07D0074B1B68DA6ABB6AE4
:1014F0009A4201D200F014FDFB6918462037BD4620
:1015000080BD00BFD401002028010020E40100209C
:10151000DC010020F8010020E00100202C01002067
:1015200080B584B000AF78600023FB607B68002B3F
:1015300012D000F047F80C4B1A687B681344BB606C
:101540000A4B1B680433184600F02CFCB86800F006
:101550001DFA00F045F8F860FB68002B01D100F09F
:10156000DFFC1037BD4680BDD801002028010020D7
:1015700080B586B004AF00230093002301930023BD
:101580000293002303930B480B4978220023FFF7B3
:101590001FFF78607B68012B09D100F0EBFC074B43
:1015A00001221A60064B00221A6000F09DFC0837E9
:1015B000BD4680BD9518000818240008E4010020ED
:1015C000D801002080B400AF044B1B685A1C034BA9
:1015D0001A60BD465DF8047B704700BFE80100203B
:1015E00090B583B000AF00237B6000F0A5FC314BC9
:1015F0001B685A1E2F4B1A602E4B1B68002B52D1B2
:101600002D4B1B68002B4ED000233B6027E02B4B5B
:10161000DB68DC6804F11803184600F0C3FB231DE7
:10162000184600F0BFFBE26A254B1B689A4202D9BC
:10163000E26A234B1A60E26A13469B0013449B0044
:10164000204A1A44231D1046194600F04BFBE26A5B
:101650001D4B1B68DB6A9A4201D301233B60174B89
:101660001B68002BD3D1194B1B68002B0DD006E053
:1016700000F030F8154B1B685A1E144B1A60134BC0
:101680001B68002BF4D101233B603B68012B03D086
:101690000F4B1B68012B06D101237B600C4B0022F2
:1016A0001A6000F03DFC00F053FC7B6818460C37D4
:1016B000BD4690BDE8010020D4010020C0010020FB
:1016C000E00100202C01002028010020EC01002076
:1016D000F001002080B584B000AF404B1B68002BA8
:1016E00073D13F4B1B685A1C3D4B1A603C4B1B6827
:1016F000002B21D13B4B1B68FB603B4B1A68394BDD
:101700001A60394BFA681A60384B1B685A1C374B01
:101710001A60344B1B681B68002B04D1344B4FF00C
:10172000FF321A6008E02F4B1B68DB68DB68BB6088
:10173000BB685A682E4B1A60294B1A682C4B1B68E1
:101740009A4241D3274B1B681B68002B04D1284BBE
:101750004FF0FF321A6037E0224B1B68DB68DB6812
:10176000BB60BB685B687B601D4B1A687B689A42F4
:1017700003D21F4B7A681A6026E0BB680433184610
:1017800000F010FBBB689B6A002B04D0BB681833C9
:10179000184600F007FBBB68DA6A164B1B689A42D2
:1017A00003D9BB68DA6A134B1A60BB68DA6A13465E
:1017B0009B0013449B00104A1A44BB680433104634
:1017C000194600F08FFABDE704E00C4B1B685A1C69
:1017D0000A4B1A601037BD4680BD00BFE8010020EB
:1017E000D8010020B8010020BC010020F401002035
:1017F00018000020E00100202C010020EC01002056
:1018000080B483B000AF1E4B1B68002B03D01D4B70
:1018100001221A602EE004E01B4B1B685A1E1A4B73
:101820001A60194B1A68194913469B0013449B0010
:101830000B441B68002BEFD0134B1A6813469B0018
:1018400013449B00114A13447B607B685B685A68B1
:101850007B685A607B685A687B6808339A4204D177
:101860007B685B685A687B685A607B685B68DA688B
:10187000074B1A600C37BD465DF8047B704700BF0C
:10188000E8010020F0010020E00100202C010020F0
:101890002801002080B582B000AF786000F070F8B9
:1018A000034B1B68012B02D900F03AFBF6E7F5E782
:1018B0002C01002080B584B000AFF860B9607A6078
:1018C0003B60FB6834331846B968202200F0D6FC30
:1018D000FB68002283F853207B68042B01D9042382
:1018E0007B60FB687A68DA62FB680433184600F0B4
:1018F000EDF9FB681833184600F0E8F9FB68FA6860
:101900001A617B68C3F10502FB689A61FB68FA689B
:101910005A621037BD4680BD80B582B000AF00234B
:101920007B600CE07A6813469B0013449B000E4AD0
:101930001344184600F0AAF97B6801337B607B688A
:10194000042BEFD9094800F0A1F9094800F09EF9ED
:10195000084800F09BF9084B044A1A60074B044AF8
:101960001A600837BD4680BD2C0100209001002080
:10197000A4010020C0010020B8010020BC0100200B
:1019800080B400AFBD465DF8047B704780B582B07F
:1019900000AF7860134B1B687A685A60124B1B6863
:1019A0007A689A4209D2114B1A680E4B1B680433AD
:1019B0001046194600F0BEF910E00D4B1A68094BAD
:1019C0001B6804331046194600F0B4F9094B1B6834
:1019D0007A689A4202D2074B7A681A600837BD4685
:1019E00080BD00BF28010020D8010020BC010020DC
:1019F000B80100201800002080B584B000AF034675
:101A00003960FB80542000F003FBF860FB68002B7A
:101A10001FD03B68002B06D1FB889B00184600F0C6
:101A2000F7FA034600E03B68FA681363FB681B6B38
:101A3000002B05D1F86800F077FB0023FB6008E07D
:101A4000FB681A6BFB889B001046A5211A4600F024
:101A5000CBFBFB6818461037BD4680BD80B58CB007
:101A600000AF786039600023FB620023BB62002373
:101A70007B6200233B620023FB617B68FB617B6828
:101A80001B8A9BB2FB62FA6A4CF6FF731340FB623F
:101A90003B68DB88FA6A1343FB62FB6A9AB27B6895
:101AA0001A827B689B899BB2FB62FA6A4EF6F3133B
:101AB0001340FB623B689A883B681B8913439AB2C8
:101AC0003B685B8913439BB2FA6A1343FB62FB6A70
:101AD0009AB27B689A817B689B8A9BB2FB62FA6AA6
:101AE0004FF6FF431340FB623B689B89FA6A13433E
:101AF000FB62FB6A9AB27B689A8207F10803184678
:101B0000FFF760FBFA69304B9A4202D17B69BB62F6
:101B100001E03B69BB627B689B899BB29BB21BB2B5
:101B2000002B0CDABA6A13469B0013449A001A443D
:101B30003B681B685B00B2FBF3F37B620BE0BA6AA5
:101B400013469B0013449A001A443B681B689B0091
:101B5000B2FBF3F37B627A6A1C4BA3FB02135B09B3
:101B60001B01FB62FB6A1B09642202FB03F37A6A16
:101B7000D31A3B627B689B899BB29BB21BB2002B42
:101B80000DDA3B6ADB0003F13202104BA3FB0213B8
:101B90005B0903F00703FA6A1343FB620CE03B6A3C
:101BA0001B0103F13202094BA3FB02135B0903F093
:101BB0000F03FA6A1343FB62FB6A9AB27B681A81CD
:101BC0003037BD4680BD00BF003801401F85EB5156
:101BD00080B483B000AF78600B46FB70FB78002BBD
:101BE00008D07B689B899BB243F400539AB27B6810
:101BF0009A8107E07B689B899BB223F400539AB2D9
:101C00007B689A810C37BD465DF8047B704700BF46
:101C100080B483B000AF78600B467B807B88C3F3D1
:101C200008039AB27B689A800C37BD465DF8047B46
:101C3000704700BF80B483B000AF78607B689B883A
:101C40009BB2C3F308039BB218460C37BD465DF840
:101C5000047B704780B485B000AF78600B467B8012
:101C60000023FB737B681B889AB27B8813409BB26E
:101C7000002B02D00123FB7301E00023FB73FB7BED
:101C800018461437BD465DF8047B704780B483B0B6
:101C900000AF78607B6803F108027B685A607B685C
:101CA0004FF0FF329A607B6803F108027B68DA60CC
:101CB0007B6803F108027B681A617B6800221A6066
:101CC0000C37BD465DF8047B704700BF80B483B01D
:101CD00000AF78607B6800221A610C37BD465DF862
:101CE000047B704780B485B000AF786039607B6852
:101CF0005B68FB60FB685A683B685A607B685A689F
:101D00003B689A60FB685B683A689A60FB683A686F
:101D10005A607B683A685A603B687A681A617B68E7
:101D20001B685A1C7B681A601437BD465DF8047B3B
:101D3000704700BF80B485B000AF786039603B6801
:101D40001B68BB60BB68B3F1FF3F03D17B681B69B5
:101D5000FB600CE07B680833FB6002E0FB685B68BB
:101D6000FB60FB685B681A68BB689A42F6D9FB683F
:101D70005A683B685A603B685B683A689A603B689F
:101D8000FA689A60FB683A685A603B687A681A6138
:101D90007B681B685A1C7B681A601437BD465DF867
:101DA000047B704780B485B000AF78607B685B6867
:101DB0007A6892689A607B689B687A6852685A6011
:101DC0007B681B69FB60FB685A687B689A4203D199
:101DD0007B689A68FB685A607B6800221A61FB681E
:101DE0001B685A1EFB681A60FB681B68184614378C
:101DF000BD465DF8047B704780B485B000AF786065
:101E00000023FB60094B1B68FB60FB6803F0380391
:101E1000FB60FA687B681343FB60044BFA681A6046
:101E20001437BD465DF8047B704700BF00200240B8
:101E300080B483B000AF7860084B084A126822F083
:101E400010021A60054B054A11687A680A431A6045
:101E50000C37BD465DF8047B704700BF0020024090
:101E600080B485B000AFF860B9607A60FB68043B6D
:101E7000FB60FB684FF080721A60FB68043BFB60FC
:101E8000BA68FB681A60FB68043BFB60FB680022D1
:101E90001A60FB68143BFB607A68FB681A60FB6899
:101EA000203BFB60FB6818461437BD465DF8047B99
:101EB000704700BF064B19680868B0E8F00F80F360
:101EC00009884FF0000080F311884EF00D0E704726
:101ED0002801002003480068006880F3088862B683
:101EE00000DF00BF08ED00E080B500AF0A4B0A4AF2
:101EF000126842F47F021A60074B074A126842F0E8
:101F00007F421A6000F072F8044B00221A60FFF75B
:101F1000E1FF0023184680BD20ED00E01C000020FA
:101F200080B400AF034B4FF080521A60BD465DF89D
:101F3000047B704704ED00E080B500AF00F01AF8B4
:101F4000024B1B685A1C014B1A6080BD1C0000200C
:101F500080B500AF064B1B685A1E054B1A60044B38
:101F60001B68002B02D1002000F00EF880BD00BFDE
:101F70001C000020EFF311804FF0BF0181F31188A6
:101F800070470023184600BF80F31188704700BFD8
:101F9000EFF309800C4B1A6820E9F00F10602DE96F
:101FA00008404FF0BF0080F31188FFF729FC4FF085
:101FB000000080F31188BDE8084019680868B0E89F
:101FC000F00F80F3098870472801002080B500AF2A
:101FD000054B4FF080521A60FFF7CCFFFFF77AFBFA
:101FE0000020FFF7D1FF80BD04ED00E080B400AF1A
:101FF000054B40F65F121A60044B07221A60BD467B
:102000005DF8047B704700BF14E000E010E000E0E2
:1020100080B588B000AF786000237B61FFF7D2FA0B
:102020003D4B1B68002B04D100F0B6F83A4B01225F
:102030001A607B68002B0DD010237A6813447B60F4
:102040007B6803F00703002B04D07B6823F00703B1
:1020500008337B607B68002B57D07A6840F6F733F3
:102060009A4252D82D4BBB612C4B1B68FB6104E09C
:10207000FB69BB61FB691B68FB61FB695A687B6894
:102080009A4203D2FB691B68002BF1D1FA69244BF9
:102090009A423AD0BB691A68102313447B61FB69EA
:1020A0001A68BB691A60FB695A687B68D21A1023E8
:1020B0005B009A4222D9FA697B681344FB60FB6992
:1020C0005A687B68D21AFB685A60FB697A685A6062
:1020D000FB685B68BB60114B3B6102E03B691B68BE
:1020E0003B613B691B685A68BB689A42F6D33B69FF
:1020F0001A68FB681A603B69FA681A60094B1A682B
:10210000FB695B68D21A074B1A60FFF769FA7B69B3
:1021100018462037BD4680BD0C0E0020FC0D002067
:10212000040E00202000002080B586B000AF78604B
:102130007B683B617B68002B27D010235B423A69A8
:1021400013443B613B69FB60FFF73CFAFB685B684B
:10215000BB600F4B7B6102E07B691B687B617B6925
:102160001B685A68BB689A42F6D37B691A68FB6899
:102170001A607B69FA681A60FB685A68054B1B682D
:102180001A44044B1A60FFF72BFA1837BD4680BD7E
:10219000FC0D00202000002080B483B000AF0F4B66
:1021A00023F007037B600E4B7A681A600C4B002209
:1021B0005A600C4B40F6F8325A600A4B00221A6003
:1021C0007B683B603B6840F6F8325A603B68054AE2
:1021D0001A600C37BD465DF8047B7047040200208E
:1021E000FC0D0020040E0020F0B4840743D0541EE0
:1021F000002A3ED0CDB2034603E0621E002C38D048
:10220000144603F8015B9A07F7D1032C2AD9CDB203
:1022100045EA05250F2C45EA054515D9A4F1100717
:102220003F0903F1100606EB07161A4615605560C4
:102230009560D5601032B242F8D104F00F04013736
:10224000032C03EB07130DD91E462246043A032A3A
:1022500046F8045BFAD8221F22F00302043213442A
:1022600004F003042CB1C9B21C4403F8011BA342BF
:10227000FBD1F0BC704714460346C6E740EA0103B1
:102280009B0770B42AD1032A28D90C46034621465D
:1022900054F8045BA5F1013626EA050616F0803FE6
:1022A00005D1043A032A43F8045B2146EFD89AB1DA
:1022B0000C78013A1C7001333CB16AB111F8014F3E
:1022C000013A03F8014B002CF7D12AB11A4400213E
:1022D00003F8011B9342FBD170BC70470346E6E74D
:1022E000C0DBDCDD00316253C4F5A697B988DBEAB8
:1022F0007D4C1F2E4372211087B6E5D4FACB98A9E6
:102300003E0F5C6D86B7E4D5427320113F0E5D6CC5
:10231000FBCA99A8C5F4A796013063527C4D1E2FC5
:10232000B889DAEB3D0C5F6EF9C89BAA84B5E6D795
:10233000407122137E4F1C2DBA8BD8E9C7F6A594A5
:1023400003326150BB8AD9E87F4E1D2C02336051A5
:10235000C6F7A495F8C99AAB3C0D5E6F4170231285
:1023600085B4E7D67A4B1829BE8FDCEDC3F2A19075
:102370000736655439085B6AFDCC9FAE80B1E2D365
:1023800044752617FCCD9EAF38095A6B4574271645
:1023900081B0E3D2BF8EDDEC7B4A19280637645545
:1023A000C2F3A0914776251483B2E1D0FECF9CAD55
:1023B0003A0B586904356657C0F1A293BD8CDFEE25
:1023C00079481B2AC1F0A3920534675678491A2B25
:1023D000BC8DDEEF82B3E0D1467724153B0A596805
:1023E000FFCE9DAC54686973206973206669736879
:1023F00000000000764C65640000000076447269BD
:1024000076650000765363616E55736172740000E7
:10241000764C43440000000049444C450000000055
:102420000100000000000000010203040102030497
:102430000607080902040608FFFFFFFFAAAAAAAAC6
:04244000F80B000095
:0400000508000000EF
:00000001FF
