:020000040800F2
:10000000F81000202501000885010008850100087E
:100010008501000885010008850100080000000036
:1000200000000000000000000000000009150008AA
:100030008501000800000000E515000821160008F1
:100040008501000885010008850100088501000878
:100050008501000885010008850100088501000868
:100060008501000885010008850100088501000858
:100070008501000885010008850100088501000848
:1000800085010008850100088501000800000000C6
:1000900000000000000000000000000085010008D2
:1000A0008501000885010008850100088501000818
:1000B0008501000885010008850100088501000808
:1000C00085010008850100088501000885010008F8
:1000D00085010008850100088501000885010008E8
:1000E0008501000885010008850100080000000066
:1000F0000000000000000000000000000000000000
:1001000000000000000000000000000000000000EF
:1001100000000000000000008501000885010008C3
:100120005FF808F180B582B000AF114B7B60114BD6
:100130003B6007E03B681A1D3A607A68111D7960E0
:1001400012681A603A680C4B9A42F3D30B480C4978
:100150004FF000028842B8BF40F8042BFFF6FAAF18
:1001600000F014F800F07CFB0837BD4680BD00BFEE
:100170009C1B0008000000200C0000200C00002048
:10018000F40C002080B400AFFEE700BF80B500AFE4
:10019000164B164A126842F001021A60134A134BBA
:1001A0005968134B0B405360104A104B1B6823F0E7
:1001B000847323F4803313600C4B0C4A126822F4CE
:1001C00080221A60094B094A526822F4FE025A60E2
:1001D000064B4FF41F029A60044B0022DA6200F0D3
:1001E0000BF8044B4FF000629A6080BD0010024093
:1001F0000000FFF800ED00E080B500AF00F002F86D
:1002000080BD00BF80B483B000AF00237B600023BB
:100210003B60304B2F4A126842F480321A602D4BFB
:100220001B6803F400333B607B6801337B603B68F1
:10023000002B03D17B68B3F5A06FF0D1254B1B6871
:1002400003F40033002B02D001233B6001E00023C4
:100250003B603B68012B37D11E4B1E4A52685A60E7
:100260001C4B1C4A52685A601A4B1A4A52685A6010
:10027000184B184A526822F47C125A60154B154AE2
:10028000526842F498125A60124B124A126842F0B5
:1002900080721A6000BF0F4B1B6803F00073002BC5
:1002A000F9D00C4B0B4A526822F003025A60094BFA
:1002B000084A526842F002025A6000BF054B5B6870
:1002C00003F00C03082BF9D10C37BD465DF8047B15
:1002D000704700BF0010024080B489B000AF786062
:1002E00039600023FB6100233B610023BB610023D5
:1002F000FB6000237B610023BB603B68DB7803F07D
:100300000F03FB613B68DB7803F01003002B04D084
:100310003B689B78FA691343FB613B681B88DBB23F
:10032000002B44D07B681B687B610023BB6138E0F5
:10033000BB69012202FA03F3FB603B681B881A4683
:10034000FB6813403B613A69FB689A4226D1BB695E
:100350009B00FB60FB680F2202FA03F3BB60BB68E3
:10036000DB437A6913407B61FB68FA6902FA03F3A5
:100370007A6913437B613B68DB78282B05D1BB6925
:1003800001229A407B685A6108E03B68DB78482B81
:1003900004D1BB6901229A407B681A61BB690133B1
:1003A000BB61BB69072BC3D97B687A691A603B685C
:1003B0001B88FF2B46D97B685B687B610023BB6190
:1003C0003AE0BB690833012202FA03F3FB603B68A1
:1003D0001B881A46FB6813403B613A69FB689A42E6
:1003E00027D1BB699B00FB60FB680F2202FA03F375
:1003F000BB60BB68DB437A6913407B61FB68FA69C9
:1004000002FA03F37A6913437B613B68DB78282B9C
:1004100005D1BB69083301229A407B685A613B6869
:10042000DB78482B05D1BB69083301229A407B68F1
:100430001A61BB690133BB61BB69072BC1D97B68FA
:100440007A695A602437BD465DF8047B704700BF67
:1004500080B485B000AF78600B467B800023FB73CF
:100460007B689A687B881340002B02D00123FB73C2
:1004700001E00023FB73FB7B18461437BD465DF893
:10048000047B704780B483B000AF78600B467B80FC
:100490007A887B681A610C37BD465DF8047B70472B
:1004A00080B483B000AF78600B467B807A887B682D
:1004B0005A610C37BD465DF8047B704780B483B049
:1004C00000AF0346FB71134BFA7992B29A8100BFD9
:1004D000104B1B899BB203F00203002BF8D000BF26
:1004E0000C4B1B899BB203F00103002BF8D000BF1B
:1004F000084B1B899BB203F08003002BF8D1054BFE
:100500009B899BB2DBB218460C37BD465DF8047B75
:10051000704700BF0030014080B582B000AF034695
:10052000FB710C481021FFF7BBFFFB791846FFF762
:10053000C5FF0346FB71FF20FFF7C0FF0346FB71B9
:1005400004481021FFF79EFFFB7918460837BD4687
:1005500080BD00BF0010014080B582B000AF0246F0
:100560000B46FA71BB710D481021FFF799FFFB791B
:1005700043F02003DBB21846FFF7A0FF0346FB71F0
:10058000BB791846FFF79AFF0346FB710348102119
:10059000FFF778FF0837BD4680BD00BF001001405F
:1005A00080B582B000AF0346FB710E481021FFF703
:1005B00077FFA020FFF782FFFB791846FFF77EFF49
:1005C00008482021FFF76CFF012000F0EBFB0548F5
:1005D0002021FFF757FF03481021FFF753FF08378B
:1005E000BD4680BD0010014080B58AB000AF786084
:1005F00001233B84042387F8233007F1200361485B
:100600001946FFF769FE1020012100F08FFA302310
:100610003B84102387F82330032387F8223007F127
:10062000200359481946FFF757FE57481021FFF796
:1006300037FF55482021FFF733FFFF2387F8263087
:10064000002387F827304FF48050012100F06EFA24
:100650000420012100F06AFAE023BB831823FB7712
:100660000323BB7707F11C0346481946FFF734FE06
:10067000464800F0F7FF1023BB8200233B814FF474
:1006800082737B810023BB814FF440737B82002304
:10069000FB820023FB8100233B8207F108033B48D8
:1006A000194601F019F83948012101F059F80020E4
:1006B0000A21FFF751FF04200021FFF74DFF002022
:1006C0000A21FFF749FF0020FFF726FF034687F8BE
:1006D00026300120FFF720FF034687F8263002204E
:1006E000FFF71AFF034687F826300320FFF714FFB1
:1006F000034687F826300420FFF70EFF034687F8ED
:1007000026300620FFF708FF034687F8263007202B
:10071000FFF702FF034687F826300820FFF7FCFEAC
:10072000034687F8263017480121FFF791FE03465C
:10073000002B0ED097F82730002B0AD1012387F821
:100740002730AB20FFF72CFF0F484FF40071FFF765
:1007500099FE0C480121FFF77BFE0346002B0FD1C9
:1007600097F82730012B0BD1002387F82730CC20B6
:10077000FFF716FF04484FF40071FFF791FE9EE764
:100780009DE700BF0008014000100140003001401B
:1007900080B582B000AF00F093F84FF4803000F0E5
:1007A000C1F800F0EDF80346FB71FB79012B28D16D
:1007B000102000F067FE002000F048FE002000F04E
:1007C00061F9002000F096F9002000F077F94FF46D
:1007D00080304FF4802100F0FBF8012000F016F982
:1007E00000BF392000F0FCF90346002BF9D00220AD
:1007F00000F01CF900BF00F035F90346082BFAD1D0
:1008000000E0FEE70837BD4680BD00BF80B584B07C
:1008100000AF78601020012100F088F90323BB733A
:100820001023FB734FF44073BB8107F10C030B489B
:100830001946FFF751FD09484FF48071FFF722FE7A
:1008400041F2883000F0AEFA04484FF48071FFF7AF
:1008500027FE41F2883000F0A5FAECE700100140D5
:1008600080B584B004AFFFF793FF0023009300230B
:10087000019300230293002303930D480D4978222E
:10088000002300F0E7F900230093002301930023E5
:10089000029300230393084808497822002300F0BC
:1008A000D9F900F0A7FA00231846BD4680BD00BF65
:1008B0000D080008841B0008E90500088C1B0008CF
:1008C00080B400AF154B154A126842F001021A605D
:1008D000124A124B5968124B0B4053600F4A0F4B90
:1008E0001B6823F0847323F4803313600B4B0B4A93
:1008F000126822F480221A60084B084A526822F4D7
:10090000FE025A60054B4FF41F029A60034B00220F
:10091000DA62BD465DF8047B704700BF00100240FC
:100920000000FFF880B483B000AF7860134B134A27
:10093000126822F480321A60104B104A126822F4B6
:1009400080221A607B68B3F5803F03D0B3F5802F17
:1009500007D00DE0094B094A126842F480321A6050
:1009600006E0064B054A126842F4A0221A6000BF56
:100970000C37BD465DF8047B704700BF0010024095
:1009800080B582B000AF00233B600023FB710023E1
:10099000BB71312000F024F90346BB713B68013381
:1009A0003B603B68B3F5A06F02D0BB79002BF0D061
:1009B000312000F015F90346002B02D00123FB7112
:1009C00001E00023FB71FB7918460837BD4680BD66
:1009D00080B485B000AF786039600023FB600A4BBB
:1009E0005B68FB60FB6823F47413FB607A683B6808
:1009F0001343FA681343FB60034BFA685A601437D9
:100A0000BD465DF8047B70470010024080B483B09F
:100A100000AF0346FB71044BFA791A600C37BD46F0
:100A20005DF8047B704700BF6000424280B485B02F
:100A300000AF78600023FB60094B5B68FB60FB68DC
:100A400023F00303FB60FA687B681343FB60044BED
:100A5000FA685A601437BD465DF8047B704700BFE2
:100A60000010024080B400AF054B5B68DBB203F0BE
:100A70000C03DBB21846BD465DF8047B704700BF2F
:100A80000010024080B485B000AF78600023FB60A6
:100A9000094B5B68FB60FB6823F0F003FB60FA68BE
:100AA0007B681343FB60044BFA685A601437BD46F9
:100AB0005DF8047B704700BF0010024080B485B031
:100AC00000AF78600023FB60094B5B68FB60FB684C
:100AD00023F4E063FB60FA687B681343FB60044B1C
:100AE000FA685A601437BD465DF8047B704700BF52
:100AF0000010024080B485B000AF78600023FB6036
:100B0000094B5B68FB60FB6823F46053FB607B6808
:100B1000DB00FA681343FB60034BFA685A60143732
:100B2000BD465DF8047B70470010024080B483B07E
:100B300000AF78600B46FB70FB78002B06D0094BAA
:100B4000084A91697A680A439A6106E0054B054AAA
:100B500091697A68D2430A409A610C37BD465DF8C4
:100B6000047B70470010024080B483B000AF78600F
:100B70000B46FB70FB78002B06D0094B084AD16866
:100B80007A680A43DA6006E0054B054AD1687A685C
:100B9000D2430A40DA600C37BD465DF8047B7047EB
:100BA0000010024080B483B000AF78600B46FB7049
:100BB000FB78002B06D0094B084A11697A680A4372
:100BC0001A6106E0054B054A11697A68D2430A406A
:100BD0001A610C37BD465DF8047B70470010024077
:100BE00080B487B000AF0346FB710023FB60002395
:100BF0007B610023FB74FB795B09DBB2FB60FB6864
:100C0000012B03D1124B1B687B6109E0FB68022BAF
:100C100003D10F4B1B6A7B6102E00D4B5B6A7B616A
:100C2000FB7903F01F03FB60FB687A6922FA03F388
:100C300003F00103002B02D00123FB7401E0002329
:100C4000FB74FB7C18461C37BD465DF8047B70477F
:100C50000010024080B58AB002AFF860B9603B6016
:100C60001346FB80FB881846396B00F007FBB86120
:100C7000BB69002B70D0BB691A6BFB8803F1804302
:100C8000013B9B0013447B617B6923F007037B617D
:100C9000FB880093B869B968BA6A7B6B00F04CFABC
:100CA0007869F9683A6800F005FC0246BB691A6089
:100CB000FB6A002B02D0FB6ABA691A6000F066FC7E
:100CC000314B1B685A1C304B1A60304B1B68002B91
:100CD00009D12E4BBA691A602B4B1B68012B0FD11F
:100CE00000F05CFA0CE02A4B1B68002B08D1274B64
:100CF0001B68DA6ABB6A9A4202D8244BBA691A6046
:100D0000BB69DA6A234B1B689A4203D9BB69DA6A6A
:100D1000204B1A60204B1B685A1C1F4B1A60BB6982
:100D2000DA6A1E4B1B689A4203D9BB69DA6A1B4B0D
:100D30001A60BB69DA6A13469B0013449B00184A89
:100D40001A44BB6904331046194600F0F5FA012332
:100D5000FB6100F027FC02E04FF0FF33FB61FB6911
:100D6000012B0BD10A4B1B68002B07D0074B1B68CC
:100D7000DA6ABB6A9A4201D200F0FCFBFB691846B2
:100D80002037BD4680BD00BFB80000200C00002009
:100D9000C8000020C0000020DC000020C4000020AB
:100DA0001000002080B584B000AF78600023FB60A5
:100DB0007B68002B12D000F047F80C4B1A687B6858
:100DC0001344BB600A4B1B680433184600F014FB45
:100DD000B86800F01DFA00F045F8F860FB68002BD9
:100DE00001D100F0C7FB1037BD4680BDBC0000201C
:100DF0000C00002080B586B004AF002300930023D0
:100E0000019300230293002303930B480B4978229C
:100E10000023FFF71FFF78607B68012B09D100F0EA
:100E2000D3FB074B01221A60064B00221A6000F028
:100E300085FB0837BD4680BD19110008941B0008CA
:100E4000C8000020BC00002080B400AF044B1B6829
:100E50005A1C034B1A60BD465DF8047B704700BF07
:100E6000CC00002090B583B000AF00237B6000F081
:100E70008DFB314B1B685A1E2F4B1A602E4B1B6883
:100E8000002B52D12D4B1B68002B4ED000233B6012
:100E900027E02B4BDB68DC6804F11803184600F0F0
:100EA000ABFA231D184600F0A7FAE26A254B1B682F
:100EB0009A4202D9E26A234B1A60E26A13469B0007
:100EC00013449B00204A1A44231D1046194600F083
:100ED00033FAE26A1D4B1B68DB6A9A4201D3012395
:100EE0003B60174B1B68002BD3D1194B1B68002BA1
:100EF0000DD006E000F030F8154B1B685A1E144B5D
:100F00001A60134B1B68002BF4D101233B603B6834
:100F1000012B03D00F4B1B68012B06D101237B60F3
:100F20000C4B00221A6000F025FB00F03BFB7B68B5
:100F300018460C37BD4690BDCC000020B8000020FC
:100F4000A4000020C4000020100000200C0000209D
:100F5000D0000020D400002080B584B000AF404B0A
:100F60001B68002B73D13F4B1B685A1C3D4B1A600A
:100F70003C4B1B68002B21D13B4B1B68FB603B4B60
:100F80001A68394B1A60394BFA681A60384B1B687B
:100F90005A1C374B1A60344B1B681B68002B04D15A
:100FA000344B4FF0FF321A6008E02F4B1B68DB68B0
:100FB000DB68BB60BB685A682E4B1A60294B1A6805
:100FC0002C4B1B689A4241D3274B1B681B68002B94
:100FD00004D1284B4FF0FF321A6037E0224B1B68D8
:100FE000DB68DB68BB60BB685B687B601D4B1A68B5
:100FF0007B689A4203D21F4B7A681A6026E0BB686E
:101000000433184600F0F8F9BB689B6A002B04D043
:10101000BB681833184600F0EFF9BB68DA6A164B64
:101020001B689A4203D9BB68DA6A134B1A60BB6823
:10103000DA6A13469B0013449B00104A1A44BB68AB
:1010400004331046194600F077F9BDE704E00C4B75
:101050001B685A1C0A4B1A601037BD4680BD00BF82
:10106000CC000020BC0000209C000020A00000203C
:10107000D800002000000020C40000201000002044
:10108000D000002080B483B000AF1E4B1B68002B43
:1010900003D01D4B01221A602EE004E01B4B1B689D
:1010A0005A1E1A4B1A60194B1A68194913469B00AD
:1010B00013449B000B441B68002BEFD0134B1A68A2
:1010C00013469B0013449B00114A13447B607B68CA
:1010D0005B685A687B685A607B685A687B6808332B
:1010E0009A4204D17B685B685A687B685A607B6867
:1010F0005B68DA68074B1A600C37BD465DF8047B05
:10110000704700BFCC000020D4000020C4000020A5
:10111000100000200C00002080B582B000AF786085
:1011200000F070F8034B1B68012B02D900F022FA83
:10113000F6E7F5E71000002080B584B000AFF86056
:10114000B9607A603B60FB6834331846B968202286
:1011500000F05CFCFB68002283F853207B68042BC2
:1011600001D904237B60FB687A68DA62FB68043388
:10117000184600F0D5F8FB681833184600F0D0F890
:10118000FB68FA681A617B68C3F10502FB689A6123
:10119000FB68FA685A621037BD4680BD80B582B0E0
:1011A00000AF00237B600CE07A6813469B00134479
:1011B0009B000E4A1344184600F092F87B680133F6
:1011C0007B607B68042BEFD9094800F089F8094857
:1011D00000F086F8084800F083F8084B044A1A60CB
:1011E000074B044A1A600837BD4680BD1000002036
:1011F0007400002088000020A40000209C00002033
:10120000A000002080B400AFBD465DF8047B7047AD
:1012100080B582B000AF7860134B1B687A685A6063
:10122000124B1B687A689A4209D2114B1A680E4B0E
:101230001B6804331046194600F0A6F810E00D4B69
:101240001A68094B1B6804331046194600F09CF8D5
:10125000094B1B687A689A4202D2074B7A681A6077
:101260000837BD4680BD00BF0C000020BC00002038
:10127000A00000209C0000200000002080B584B069
:1012800000AF03463960FB80542000F089FAF86013
:10129000FB68002B1FD03B68002B06D1FB889B000E
:1012A000184600F07DFA034600E03B68FA681363D5
:1012B000FB681B6B002B05D1F86800F0FDFA0023DA
:1012C000FB6008E0FB681A6BFB889B001046A521B9
:1012D0001A4600F051FBFB6818461037BD4680BD2A
:1012E00080B483B000AF78607B6803F108027B684C
:1012F0005A607B684FF0FF329A607B6803F1080206
:101300007B68DA607B6803F108027B681A617B689E
:1013100000221A600C37BD465DF8047B704700BFA1
:1013200080B483B000AF78607B6800221A610C370C
:10133000BD465DF8047B704780B485B000AF78602F
:1013400039607B685B68FB60FB685A683B685A6081
:101350007B685A683B689A60FB685B683A689A6089
:10136000FB683A685A607B683A685A603B687A68FA
:101370001A617B681B685A1C7B681A601437BD466B
:101380005DF8047B704700BF80B485B000AF786023
:1013900039603B681B68BB60BB68B3F1FF3F03D19A
:1013A0007B681B69FB600CE07B680833FB6002E034
:1013B000FB685B68FB60FB685B681A68BB689A4205
:1013C000F6D9FB685A683B685A603B685B683A68C4
:1013D0009A603B68FA689A60FB683A685A603B68B2
:1013E0007A681A617B681B685A1C7B681A6014371C
:1013F000BD465DF8047B704780B485B000AF78606F
:101400007B685B687A6892689A607B689B687A6898
:1014100052685A607B681B69FB60FB685A687B688E
:101420009A4203D17B689A68FB685A607B68002205
:101430001A61FB681B685A1EFB681A60FB681B6810
:1014400018461437BD465DF8047B704780B485B0FC
:1014500000AF78600023FB60094B1B68FB60FB68F2
:1014600003F03803FB60FA687B681343FB60044BAE
:10147000FA681A601437BD465DF8047B704700BFF8
:101480000020024080B483B000AF7860084B084A67
:10149000126822F010021A60054B054A11687A683A
:1014A0000A431A600C37BD465DF8047B704700BFE5
:1014B0000020024080B485B000AFF860B9607A6067
:1014C000FB68043BFB60FB684FF080721A60FB68AE
:1014D000043BFB60BA68FB681A60FB68043BFB6076
:1014E000FB6800221A60FB68143BFB607A68FB68AB
:1014F0001A60FB68203BFB60FB6818461437BD464A
:101500005DF8047B704700BF064B19680868B0E8B7
:10151000F00F80F309884FF0000080F311884EF03F
:101520000D0E70470C00002003480068006880F32F
:10153000088862B600DF00BF08ED00E080B500AFAC
:101540000A4B0A4A126842F47F021A60074B074AA4
:10155000126842F07F421A6000F072F8044B0022D9
:101560001A60FFF7E1FF0023184680BD20ED00E080
:101570000400002080B400AF034B4FF080521A608B
:10158000BD465DF8047B704704ED00E080B500AF18
:1015900000F01AF8024B1B685A1C014B1A6080BD00
:1015A0000400002080B500AF064B1B685A1E054B97
:1015B0001A60044B1B68002B02D1002000F00EF8CB
:1015C00080BD00BF04000020EFF311804FF0BF0189
:1015D00081F3118870470023184600BF80F31188FB
:1015E000704700BFEFF309800C4B1A6820E9F00F39
:1015F00010602DE908404FF0BF0080F31188FFF71D
:1016000041FD4FF0000080F31188BDE808401968E3
:101610000868B0E8F00F80F3098870470C000020DC
:1016200080B500AF054B4FF080521A60FFF7CCFF3A
:10163000FFF792FC0020FFF7D1FF80BD04ED00E032
:1016400080B400AF054B40F65F121A60044B0722CE
:101650001A60BD465DF8047B704700BF14E000E0EF
:1016600010E000E080B582B000AF78607A68174B78
:101670009A420AD14FF480500121FFF775FA4FF4D6
:1016800080500021FFF770FA1CE07A68104B9A42F4
:101690000AD14FF480400121FFF784FA4FF48040D3
:1016A0000021FFF77FFA0DE07A680A4B9A4209D1D0
:1016B0004FF400400121FFF775FA4FF4004000217C
:1016C000FFF770FA0837BD4680BD00BF003001400B
:1016D00000380040003C004080B485B000AF786026
:1016E00039600023FB817B681B88FB81FB8903F445
:1016F0004153FB813B681A883B685B8813439AB26D
:101700003B689B8813439AB23B68DB8813439AB2C9
:101710003B681B8913439AB23B685B8913439AB2B7
:101720003B689B8913439AB23B68DB8913439AB2A7
:10173000FB891343FB817B68FA891A807B689B8B4A
:101740009BB223F400639AB27B689A833B681A8A3F
:101750007B681A821437BD465DF8047B704700BF72
:1017600080B483B000AF78600B46FB70FB78002B31
:1017700008D07B681B889BB243F040039AB27B6819
:101780001A8007E07B681B889BB223F040039AB263
:101790007B681A800C37BD465DF8047B704700BF3C
:1017A00080B588B000AF786000237B61FFF74CFB09
:1017B0003D4B1B68002B04D100F0B6F83A4B0122D8
:1017C0001A607B68002B0DD010237A6813447B606D
:1017D0007B6803F00703002B04D07B6823F007032A
:1017E00008337B607B68002B57D07A6840F6F7336C
:1017F0009A4252D82D4BBB612C4B1B68FB6104E015
:10180000FB69BB61FB691B68FB61FB695A687B680C
:101810009A4203D2FB691B68002BF1D1FA69244B71
:101820009A423AD0BB691A68102313447B61FB6962
:101830001A68BB691A60FB695A687B68D21A102360
:101840005B009A4222D9FA697B681344FB60FB690A
:101850005A687B68D21AFB685A60FB697A685A60DA
:10186000FB685B68BB60114B3B6102E03B691B6836
:101870003B613B691B685A68BB689A42F6D33B6977
:101880001A68FB681A603B69FA681A60094B1A68A3
:10189000FB695B68D21A074B1A60FFF7E3FA7B69B2
:1018A00018462037BD4680BDF00C0020E00C00201B
:1018B000E80C00200800002080B586B000AF7860FA
:1018C0007B683B617B68002B27D010235B423A6921
:1018D00013443B613B69FB60FFF7B6FAFB685B684A
:1018E000BB600F4B7B6102E07B691B687B617B699E
:1018F0001B685A68BB689A42F6D37B691A68FB6812
:101900001A607B69FA681A60FB685A68054B1B68A5
:101910001A44044B1A60FFF7A5FA1837BD4680BD7C
:10192000E00C00200800002080B483B000AF0F4B13
:1019300023F007037B600E4B7A681A600C4B002281
:101940005A600C4B40F6F8325A600A4B00221A607B
:101950007B683B603B6840F6F8325A603B68054A5A
:101960001A600C37BD465DF8047B7047E800002024
:10197000E00C0020E80C0020F0B4840743D0541E93
:10198000002A3ED0CDB2034603E0621E002C38D0C0
:10199000144603F8015B9A07F7D1032C2AD9CDB27C
:1019A00045EA05250F2C45EA054515D9A4F1100790
:1019B0003F0903F1100606EB07161A46156055603D
:1019C0009560D5601032B242F8D104F00F040137AF
:1019D000032C03EB07130DD91E462246043A032AB3
:1019E00046F8045BFAD8221F22F0030204321344A3
:1019F00004F003042CB1C9B21C4403F8011BA34238
:101A0000FBD1F0BC704714460346C6E740EA010329
:101A10009B0770B42AD1032A28D90C4603462146D5
:101A200054F8045BA5F1013626EA050616F0803F5E
:101A300005D1043A032A43F8045B2146EFD89AB152
:101A40000C78013A1C7001333CB16AB111F8014FB6
:101A5000013A03F8014B002CF7D12AB11A440021B6
:101A600003F8011B9342FBD170BC70470346E6E7C5
:101A7000C0DBDCDD00316253C4F5A697B988DBEA30
:101A80007D4C1F2E4372211087B6E5D4FACB98A95E
:101A90003E0F5C6D86B7E4D5427320113F0E5D6C3E
:101AA000FBCA99A8C5F4A796013063527C4D1E2F3E
:101AB000B889DAEB3D0C5F6EF9C89BAA84B5E6D70E
:101AC000407122137E4F1C2DBA8BD8E9C7F6A5941E
:101AD00003326150BB8AD9E87F4E1D2C023360511E
:101AE000C6F7A495F8C99AAB3C0D5E6F41702312FE
:101AF00085B4E7D67A4B1829BE8FDCEDC3F2A190EE
:101B00000736655439085B6AFDCC9FAE80B1E2D3DD
:101B100044752617FCCD9EAF38095A6B45742716BD
:101B200081B0E3D2BF8EDDEC7B4A192806376455BD
:101B3000C2F3A0914776251483B2E1D0FECF9CADCD
:101B40003A0B586904356657C0F1A293BD8CDFEE9D
:101B500079481B2AC1F0A3920534675678491A2B9D
:101B6000BC8DDEEF82B3E0D1467724153B0A59687D
:101B7000FFCE9DAC546869732069732066697368F1
:101B800000000000764C6564000000007653504968
:0C1B90000000000049444C45000000002B
:0C1B9C00FFFFFFFFAAAAAAAAF80B000096
:0400000508000000EF
:00000001FF
